{
  "contractName": "Exchange",
  "abi": [
    {
      "inputs": [
        {
          "internalType": "address",
          "name": "_feeAccount",
          "type": "address"
        },
        {
          "internalType": "uint256",
          "name": "_feePercent",
          "type": "uint256"
        }
      ],
      "stateMutability": "nonpayable",
      "type": "constructor"
    },
    {
      "anonymous": false,
      "inputs": [
        {
          "indexed": false,
          "internalType": "uint256",
          "name": "id",
          "type": "uint256"
        },
        {
          "indexed": false,
          "internalType": "address",
          "name": "user",
          "type": "address"
        },
        {
          "indexed": false,
          "internalType": "address",
          "name": "tokenGet",
          "type": "address"
        },
        {
          "indexed": false,
          "internalType": "uint256",
          "name": "amountGet",
          "type": "uint256"
        },
        {
          "indexed": false,
          "internalType": "address",
          "name": "tokenGive",
          "type": "address"
        },
        {
          "indexed": false,
          "internalType": "uint256",
          "name": "amountGive",
          "type": "uint256"
        },
        {
          "indexed": false,
          "internalType": "uint256",
          "name": "timestamp",
          "type": "uint256"
        }
      ],
      "name": "Cancel",
      "type": "event"
    },
    {
      "anonymous": false,
      "inputs": [
        {
          "indexed": false,
          "internalType": "address",
          "name": "token",
          "type": "address"
        },
        {
          "indexed": false,
          "internalType": "address",
          "name": "user",
          "type": "address"
        },
        {
          "indexed": false,
          "internalType": "uint256",
          "name": "value",
          "type": "uint256"
        },
        {
          "indexed": false,
          "internalType": "uint256",
          "name": "balance",
          "type": "uint256"
        }
      ],
      "name": "Deposit",
      "type": "event"
    },
    {
      "anonymous": false,
      "inputs": [
        {
          "indexed": false,
          "internalType": "uint256",
          "name": "id",
          "type": "uint256"
        },
        {
          "indexed": false,
          "internalType": "address",
          "name": "user",
          "type": "address"
        },
        {
          "indexed": false,
          "internalType": "address",
          "name": "tokenGet",
          "type": "address"
        },
        {
          "indexed": false,
          "internalType": "uint256",
          "name": "amountGet",
          "type": "uint256"
        },
        {
          "indexed": false,
          "internalType": "address",
          "name": "tokenGive",
          "type": "address"
        },
        {
          "indexed": false,
          "internalType": "uint256",
          "name": "amountGive",
          "type": "uint256"
        },
        {
          "indexed": false,
          "internalType": "uint256",
          "name": "timestamp",
          "type": "uint256"
        }
      ],
      "name": "Order",
      "type": "event"
    },
    {
      "anonymous": false,
      "inputs": [
        {
          "indexed": false,
          "internalType": "uint256",
          "name": "id",
          "type": "uint256"
        },
        {
          "indexed": false,
          "internalType": "address",
          "name": "user",
          "type": "address"
        },
        {
          "indexed": false,
          "internalType": "address",
          "name": "tokenGet",
          "type": "address"
        },
        {
          "indexed": false,
          "internalType": "uint256",
          "name": "amountGet",
          "type": "uint256"
        },
        {
          "indexed": false,
          "internalType": "address",
          "name": "tokenGive",
          "type": "address"
        },
        {
          "indexed": false,
          "internalType": "uint256",
          "name": "amountGive",
          "type": "uint256"
        },
        {
          "indexed": false,
          "internalType": "address",
          "name": "userFill",
          "type": "address"
        },
        {
          "indexed": false,
          "internalType": "uint256",
          "name": "timestamp",
          "type": "uint256"
        }
      ],
      "name": "Trade",
      "type": "event"
    },
    {
      "anonymous": false,
      "inputs": [
        {
          "indexed": false,
          "internalType": "address",
          "name": "token",
          "type": "address"
        },
        {
          "indexed": false,
          "internalType": "address",
          "name": "user",
          "type": "address"
        },
        {
          "indexed": false,
          "internalType": "uint256",
          "name": "value",
          "type": "uint256"
        },
        {
          "indexed": false,
          "internalType": "uint256",
          "name": "balance",
          "type": "uint256"
        }
      ],
      "name": "Withdraw",
      "type": "event"
    },
    {
      "inputs": [],
      "name": "feeAccount",
      "outputs": [
        {
          "internalType": "address",
          "name": "",
          "type": "address"
        }
      ],
      "stateMutability": "view",
      "type": "function",
      "constant": true
    },
    {
      "inputs": [],
      "name": "feePercent",
      "outputs": [
        {
          "internalType": "uint256",
          "name": "",
          "type": "uint256"
        }
      ],
      "stateMutability": "view",
      "type": "function",
      "constant": true
    },
    {
      "inputs": [],
      "name": "orderCount",
      "outputs": [
        {
          "internalType": "uint256",
          "name": "",
          "type": "uint256"
        }
      ],
      "stateMutability": "view",
      "type": "function",
      "constant": true
    },
    {
      "inputs": [
        {
          "internalType": "uint256",
          "name": "",
          "type": "uint256"
        }
      ],
      "name": "orders",
      "outputs": [
        {
          "internalType": "uint256",
          "name": "id",
          "type": "uint256"
        },
        {
          "internalType": "address",
          "name": "user",
          "type": "address"
        },
        {
          "internalType": "address",
          "name": "tokenGet",
          "type": "address"
        },
        {
          "internalType": "uint256",
          "name": "amountGet",
          "type": "uint256"
        },
        {
          "internalType": "address",
          "name": "tokenGive",
          "type": "address"
        },
        {
          "internalType": "uint256",
          "name": "amountGive",
          "type": "uint256"
        },
        {
          "internalType": "uint256",
          "name": "timestamp",
          "type": "uint256"
        },
        {
          "internalType": "uint256",
          "name": "status",
          "type": "uint256"
        }
      ],
      "stateMutability": "view",
      "type": "function",
      "constant": true
    },
    {
      "inputs": [
        {
          "internalType": "address",
          "name": "",
          "type": "address"
        },
        {
          "internalType": "address",
          "name": "",
          "type": "address"
        }
      ],
      "name": "tokens",
      "outputs": [
        {
          "internalType": "uint256",
          "name": "",
          "type": "uint256"
        }
      ],
      "stateMutability": "view",
      "type": "function",
      "constant": true
    },
    {
      "inputs": [],
      "name": "depositEther",
      "outputs": [],
      "stateMutability": "payable",
      "type": "function",
      "payable": true
    },
    {
      "inputs": [
        {
          "internalType": "address",
          "name": "_token",
          "type": "address"
        },
        {
          "internalType": "uint256",
          "name": "_amount",
          "type": "uint256"
        }
      ],
      "name": "depositToken",
      "outputs": [],
      "stateMutability": "nonpayable",
      "type": "function"
    },
    {
      "inputs": [
        {
          "internalType": "uint256",
          "name": "_amount",
          "type": "uint256"
        }
      ],
      "name": "withdrawEhter",
      "outputs": [],
      "stateMutability": "nonpayable",
      "type": "function"
    },
    {
      "inputs": [
        {
          "internalType": "address",
          "name": "_token",
          "type": "address"
        },
        {
          "internalType": "uint256",
          "name": "_amount",
          "type": "uint256"
        }
      ],
      "name": "withdrawOther",
      "outputs": [],
      "stateMutability": "nonpayable",
      "type": "function"
    },
    {
      "inputs": [
        {
          "internalType": "address",
          "name": "_token",
          "type": "address"
        },
        {
          "internalType": "address",
          "name": "_user",
          "type": "address"
        }
      ],
      "name": "balanceOf",
      "outputs": [
        {
          "internalType": "uint256",
          "name": "",
          "type": "uint256"
        }
      ],
      "stateMutability": "view",
      "type": "function",
      "constant": true
    },
    {
      "inputs": [
        {
          "internalType": "address",
          "name": "tokenGet",
          "type": "address"
        },
        {
          "internalType": "uint256",
          "name": "amountGet",
          "type": "uint256"
        },
        {
          "internalType": "address",
          "name": "tokenGive",
          "type": "address"
        },
        {
          "internalType": "uint256",
          "name": "amountGive",
          "type": "uint256"
        }
      ],
      "name": "makeOrder",
      "outputs": [],
      "stateMutability": "nonpayable",
      "type": "function"
    },
    {
      "inputs": [
        {
          "internalType": "uint256",
          "name": "_id",
          "type": "uint256"
        }
      ],
      "name": "cancelOrder",
      "outputs": [],
      "stateMutability": "nonpayable",
      "type": "function"
    },
    {
      "inputs": [
        {
          "internalType": "uint256",
          "name": "_id",
          "type": "uint256"
        }
      ],
      "name": "fillOrder",
      "outputs": [],
      "stateMutability": "nonpayable",
      "type": "function"
    }
  ],
  "bytecode": "0x60806040523480156200001157600080fd5b50604051620025323803806200253283398181016040528101906200003791906200012b565b816000806101000a81548173ffffffffffffffffffffffffffffffffffffffff021916908373ffffffffffffffffffffffffffffffffffffffff16021790555080600181905550505062000172565b600080fd5b600073ffffffffffffffffffffffffffffffffffffffff82169050919050565b6000620000b8826200008b565b9050919050565b620000ca81620000ab565b8114620000d657600080fd5b50565b600081519050620000ea81620000bf565b92915050565b6000819050919050565b6200010581620000f0565b81146200011157600080fd5b50565b6000815190506200012581620000fa565b92915050565b6000806040838503121562000145576200014462000086565b5b60006200015585828601620000d9565b9250506020620001688582860162000114565b9150509250929050565b6123b080620001826000396000f3fe6080604052600436106100df576000357c01000000000000000000000000000000000000000000000000000000009004806367b830ad1161009c57806398ea5fca1161007657806398ea5fca1461026f5780639a5c90aa14610279578063a85c38ef146102a2578063f7888aec146102e6576100df565b806367b830ad146101f25780636dfcff8e1461021b5780637fd6f15c14610244576100df565b80632453ffa8146100e4578063338b5dea1461010f5780634b5d5e3c14610138578063508493bc14610161578063514fcac71461019e57806365e17c9d146101c7575b600080fd5b3480156100f057600080fd5b506100f9610323565b6040516101069190611a93565b60405180910390f35b34801561011b57600080fd5b5061013660048036038101906101319190611b3d565b610329565b005b34801561014457600080fd5b5061015f600480360381019061015a9190611b7d565b6105d3565b005b34801561016d57600080fd5b5061018860048036038101906101839190611baa565b6107e6565b6040516101959190611a93565b60405180910390f35b3480156101aa57600080fd5b506101c560048036038101906101c09190611b7d565b61080b565b005b3480156101d357600080fd5b506101dc6109d1565b6040516101e99190611bf9565b60405180910390f35b3480156101fe57600080fd5b5061021960048036038101906102149190611b7d565b6109f5565b005b34801561022757600080fd5b50610242600480360381019061023d9190611b3d565b610b2b565b005b34801561025057600080fd5b50610259610dd3565b6040516102669190611a93565b60405180910390f35b610277610dd9565b005b34801561028557600080fd5b506102a0600480360381019061029b9190611c14565b610fa4565b005b3480156102ae57600080fd5b506102c960048036038101906102c49190611b7d565b6111a9565b6040516102dd989796959493929190611c7b565b60405180910390f35b3480156102f257600080fd5b5061030d60048036038101906103089190611baa565b611251565b60405161031a9190611a93565b60405180910390f35b60035481565b600073ffffffffffffffffffffffffffffffffffffffff168273ffffffffffffffffffffffffffffffffffffffff160361036257600080fd5b8173ffffffffffffffffffffffffffffffffffffffff166323b872dd3330846040518463ffffffff167c01000000000000000000000000000000000000000000000000000000000281526004016103bb93929190611cf9565b6020604051808303816000875af11580156103da573d6000803e3d6000fd5b505050506040513d601f19601f820116820180604052508101906103fe9190611d68565b61040757600080fd5b61049681600460008573ffffffffffffffffffffffffffffffffffffffff1673ffffffffffffffffffffffffffffffffffffffff16815260200190815260200160002060003373ffffffffffffffffffffffffffffffffffffffff1673ffffffffffffffffffffffffffffffffffffffff168152602001908152602001600020546112d890919063ffffffff16565b600460008473ffffffffffffffffffffffffffffffffffffffff1673ffffffffffffffffffffffffffffffffffffffff16815260200190815260200160002060003373ffffffffffffffffffffffffffffffffffffffff1673ffffffffffffffffffffffffffffffffffffffff168152602001908152602001600020819055507fdcbc1c05240f31ff3ad067ef1ee35ce4997762752e3a095284754544f4c709d7823383600460008773ffffffffffffffffffffffffffffffffffffffff1673ffffffffffffffffffffffffffffffffffffffff16815260200190815260200160002060003373ffffffffffffffffffffffffffffffffffffffff1673ffffffffffffffffffffffffffffffffffffffff168152602001908152602001600020546040516105c79493929190611d95565b60405180910390a15050565b61066281600460008073ffffffffffffffffffffffffffffffffffffffff1673ffffffffffffffffffffffffffffffffffffffff16815260200190815260200160002060003373ffffffffffffffffffffffffffffffffffffffff1673ffffffffffffffffffffffffffffffffffffffff1681526020019081526020016000205461133690919063ffffffff16565b600460008073ffffffffffffffffffffffffffffffffffffffff1673ffffffffffffffffffffffffffffffffffffffff16815260200190815260200160002060003373ffffffffffffffffffffffffffffffffffffffff1673ffffffffffffffffffffffffffffffffffffffff168152602001908152602001600020819055503373ffffffffffffffffffffffffffffffffffffffff166108fc829081150290604051600060405180830381858888f19350505050158015610728573d6000803e3d6000fd5b507ff341246adaac6f497bc2a656f546ab9e182111d630394f0c57c710a59a2cb56760003383600460008073ffffffffffffffffffffffffffffffffffffffff1673ffffffffffffffffffffffffffffffffffffffff16815260200190815260200160002060003373ffffffffffffffffffffffffffffffffffffffff1673ffffffffffffffffffffffffffffffffffffffff168152602001908152602001600020546040516107db9493929190611d95565b60405180910390a150565b6004602052816000526040600020602052806000526040600020600091509150505481565b600060026000838152602001908152602001600020905081816000015414610868576040517f08c379a000000000000000000000000000000000000000000000000000000000815260040161085f90611e37565b60405180910390fd5b3373ffffffffffffffffffffffffffffffffffffffff168160010160009054906101000a900473ffffffffffffffffffffffffffffffffffffffff1673ffffffffffffffffffffffffffffffffffffffff16146108fa576040517f08c379a00000000000000000000000000000000000000000000000000000000081526004016108f190611ec9565b60405180910390fd5b600160026000848152602001908152602001600020600701819055507f77de1da0be5f2d3b110d05c6694e5c4ff2d9da7cd23d84353ecf78c7b5acec61828260010160009054906101000a900473ffffffffffffffffffffffffffffffffffffffff168360020160009054906101000a900473ffffffffffffffffffffffffffffffffffffffff1684600301548560040160009054906101000a900473ffffffffffffffffffffffffffffffffffffffff168660050154426040516109c59796959493929190611ee9565b60405180910390a15050565b60008054906101000a900473ffffffffffffffffffffffffffffffffffffffff1681565b806002600083815260200190815260200160002060000154148015610a30575060006002600083815260200190815260200160002060070154145b610a6f576040517f08c379a0000000000000000000000000000000000000000000000000000000008152600401610a6690611fa4565b60405180910390fd5b6000600260008381526020019081526020016000209050610b0c81600001548260010160009054906101000a900473ffffffffffffffffffffffffffffffffffffffff168360020160009054906101000a900473ffffffffffffffffffffffffffffffffffffffff1684600301548560040160009054906101000a900473ffffffffffffffffffffffffffffffffffffffff16866005015461138f565b6002806000848152602001908152602001600020600701819055505050565b600073ffffffffffffffffffffffffffffffffffffffff168273ffffffffffffffffffffffffffffffffffffffff1603610b6457600080fd5b8173ffffffffffffffffffffffffffffffffffffffff1663a9059cbb33836040518363ffffffff167c0100000000000000000000000000000000000000000000000000000000028152600401610bbb929190611fc4565b6020604051808303816000875af1158015610bda573d6000803e3d6000fd5b505050506040513d601f19601f82011682018060405250810190610bfe9190611d68565b610c0757600080fd5b610c9681600460008573ffffffffffffffffffffffffffffffffffffffff1673ffffffffffffffffffffffffffffffffffffffff16815260200190815260200160002060003373ffffffffffffffffffffffffffffffffffffffff1673ffffffffffffffffffffffffffffffffffffffff1681526020019081526020016000205461133690919063ffffffff16565b600460008473ffffffffffffffffffffffffffffffffffffffff1673ffffffffffffffffffffffffffffffffffffffff16815260200190815260200160002060003373ffffffffffffffffffffffffffffffffffffffff1673ffffffffffffffffffffffffffffffffffffffff168152602001908152602001600020819055507ff341246adaac6f497bc2a656f546ab9e182111d630394f0c57c710a59a2cb567823383600460008773ffffffffffffffffffffffffffffffffffffffff1673ffffffffffffffffffffffffffffffffffffffff16815260200190815260200160002060003373ffffffffffffffffffffffffffffffffffffffff1673ffffffffffffffffffffffffffffffffffffffff16815260200190815260200160002054604051610dc79493929190611d95565b60405180910390a15050565b60015481565b610e6834600460008073ffffffffffffffffffffffffffffffffffffffff1673ffffffffffffffffffffffffffffffffffffffff16815260200190815260200160002060003373ffffffffffffffffffffffffffffffffffffffff1673ffffffffffffffffffffffffffffffffffffffff168152602001908152602001600020546112d890919063ffffffff16565b600460008073ffffffffffffffffffffffffffffffffffffffff1673ffffffffffffffffffffffffffffffffffffffff16815260200190815260200160002060003373ffffffffffffffffffffffffffffffffffffffff1673ffffffffffffffffffffffffffffffffffffffff168152602001908152602001600020819055507fdcbc1c05240f31ff3ad067ef1ee35ce4997762752e3a095284754544f4c709d760003334600460008073ffffffffffffffffffffffffffffffffffffffff1673ffffffffffffffffffffffffffffffffffffffff16815260200190815260200160002060003373ffffffffffffffffffffffffffffffffffffffff1673ffffffffffffffffffffffffffffffffffffffff16815260200190815260200160002054604051610f9a9493929190611d95565b60405180910390a1565b610fba60016003546112d890919063ffffffff16565b60038190555060405180610100016040528060035481526020013373ffffffffffffffffffffffffffffffffffffffff1681526020018573ffffffffffffffffffffffffffffffffffffffff1681526020018481526020018373ffffffffffffffffffffffffffffffffffffffff16815260200182815260200142815260200160008152506002600060035481526020019081526020016000206000820151816000015560208201518160010160006101000a81548173ffffffffffffffffffffffffffffffffffffffff021916908373ffffffffffffffffffffffffffffffffffffffff16021790555060408201518160020160006101000a81548173ffffffffffffffffffffffffffffffffffffffff021916908373ffffffffffffffffffffffffffffffffffffffff1602179055506060820151816003015560808201518160040160006101000a81548173ffffffffffffffffffffffffffffffffffffffff021916908373ffffffffffffffffffffffffffffffffffffffff16021790555060a0820151816005015560c0820151816006015560e082015181600701559050507f9d33853d43e3607b4cc01fdc78338ff2dca6fef7db9232dae6d3eb55fbc3b10960035433868686864260405161119b9796959493929190611ee9565b60405180910390a150505050565b60026020528060005260406000206000915090508060000154908060010160009054906101000a900473ffffffffffffffffffffffffffffffffffffffff16908060020160009054906101000a900473ffffffffffffffffffffffffffffffffffffffff16908060030154908060040160009054906101000a900473ffffffffffffffffffffffffffffffffffffffff16908060050154908060060154908060070154905088565b6000600460008473ffffffffffffffffffffffffffffffffffffffff1673ffffffffffffffffffffffffffffffffffffffff16815260200190815260200160002060008373ffffffffffffffffffffffffffffffffffffffff1673ffffffffffffffffffffffffffffffffffffffff16815260200190815260200160002054905092915050565b60008082846112e7919061201c565b90508381101561132c576040517f08c379a00000000000000000000000000000000000000000000000000000000081526004016113239061209c565b60405180910390fd5b8091505092915050565b60008282111561137b576040517f08c379a000000000000000000000000000000000000000000000000000000000815260040161137290612108565b60405180910390fd5b81836113879190612128565b905092915050565b60006113b960646113ab600154856119a890919063ffffffff16565b611a2290919063ffffffff16565b905061145c6113d182846112d890919063ffffffff16565b600460008673ffffffffffffffffffffffffffffffffffffffff1673ffffffffffffffffffffffffffffffffffffffff16815260200190815260200160002060003373ffffffffffffffffffffffffffffffffffffffff1673ffffffffffffffffffffffffffffffffffffffff1681526020019081526020016000205461133690919063ffffffff16565b600460008573ffffffffffffffffffffffffffffffffffffffff1673ffffffffffffffffffffffffffffffffffffffff16815260200190815260200160002060003373ffffffffffffffffffffffffffffffffffffffff1673ffffffffffffffffffffffffffffffffffffffff1681526020019081526020016000208190555061156b82600460008673ffffffffffffffffffffffffffffffffffffffff1673ffffffffffffffffffffffffffffffffffffffff16815260200190815260200160002060008973ffffffffffffffffffffffffffffffffffffffff1673ffffffffffffffffffffffffffffffffffffffff168152602001908152602001600020546112d890919063ffffffff16565b600460008573ffffffffffffffffffffffffffffffffffffffff1673ffffffffffffffffffffffffffffffffffffffff16815260200190815260200160002060008873ffffffffffffffffffffffffffffffffffffffff1673ffffffffffffffffffffffffffffffffffffffff1681526020019081526020016000208190555061169b81600460008673ffffffffffffffffffffffffffffffffffffffff1673ffffffffffffffffffffffffffffffffffffffff16815260200190815260200160002060008060009054906101000a900473ffffffffffffffffffffffffffffffffffffffff1673ffffffffffffffffffffffffffffffffffffffff1673ffffffffffffffffffffffffffffffffffffffff168152602001908152602001600020546112d890919063ffffffff16565b600460008573ffffffffffffffffffffffffffffffffffffffff1673ffffffffffffffffffffffffffffffffffffffff16815260200190815260200160002060008060009054906101000a900473ffffffffffffffffffffffffffffffffffffffff1673ffffffffffffffffffffffffffffffffffffffff1673ffffffffffffffffffffffffffffffffffffffff168152602001908152602001600020819055506117cb84600460008873ffffffffffffffffffffffffffffffffffffffff1673ffffffffffffffffffffffffffffffffffffffff16815260200190815260200160002060008973ffffffffffffffffffffffffffffffffffffffff1673ffffffffffffffffffffffffffffffffffffffff1681526020019081526020016000205461133690919063ffffffff16565b600460008773ffffffffffffffffffffffffffffffffffffffff1673ffffffffffffffffffffffffffffffffffffffff16815260200190815260200160002060008873ffffffffffffffffffffffffffffffffffffffff1673ffffffffffffffffffffffffffffffffffffffff168152602001908152602001600020819055506118da84600460008873ffffffffffffffffffffffffffffffffffffffff1673ffffffffffffffffffffffffffffffffffffffff16815260200190815260200160002060003373ffffffffffffffffffffffffffffffffffffffff1673ffffffffffffffffffffffffffffffffffffffff168152602001908152602001600020546112d890919063ffffffff16565b600460008773ffffffffffffffffffffffffffffffffffffffff1673ffffffffffffffffffffffffffffffffffffffff16815260200190815260200160002060003373ffffffffffffffffffffffffffffffffffffffff1673ffffffffffffffffffffffffffffffffffffffff168152602001908152602001600020819055507f0dddf4182dc0fc1a311cb75f049c97403c6b8a99cf6b2229a36e7c526acb3f81878787878787334260405161199798979695949392919061215c565b60405180910390a150505050505050565b60008083036119ba5760009050611a1c565b600082846119c891906121da565b90508284826119d7919061224b565b14611a17576040517f08c379a0000000000000000000000000000000000000000000000000000000008152600401611a0e906122ee565b60405180910390fd5b809150505b92915050565b6000808211611a66576040517f08c379a0000000000000000000000000000000000000000000000000000000008152600401611a5d9061235a565b60405180910390fd5b8183611a72919061224b565b905092915050565b6000819050919050565b611a8d81611a7a565b82525050565b6000602082019050611aa86000830184611a84565b92915050565b600080fd5b600073ffffffffffffffffffffffffffffffffffffffff82169050919050565b6000611ade82611ab3565b9050919050565b611aee81611ad3565b8114611af957600080fd5b50565b600081359050611b0b81611ae5565b92915050565b611b1a81611a7a565b8114611b2557600080fd5b50565b600081359050611b3781611b11565b92915050565b60008060408385031215611b5457611b53611aae565b5b6000611b6285828601611afc565b9250506020611b7385828601611b28565b9150509250929050565b600060208284031215611b9357611b92611aae565b5b6000611ba184828501611b28565b91505092915050565b60008060408385031215611bc157611bc0611aae565b5b6000611bcf85828601611afc565b9250506020611be085828601611afc565b9150509250929050565b611bf381611ad3565b82525050565b6000602082019050611c0e6000830184611bea565b92915050565b60008060008060808587031215611c2e57611c2d611aae565b5b6000611c3c87828801611afc565b9450506020611c4d87828801611b28565b9350506040611c5e87828801611afc565b9250506060611c6f87828801611b28565b91505092959194509250565b600061010082019050611c91600083018b611a84565b611c9e602083018a611bea565b611cab6040830189611bea565b611cb86060830188611a84565b611cc56080830187611bea565b611cd260a0830186611a84565b611cdf60c0830185611a84565b611cec60e0830184611a84565b9998505050505050505050565b6000606082019050611d0e6000830186611bea565b611d1b6020830185611bea565b611d286040830184611a84565b949350505050565b60008115159050919050565b611d4581611d30565b8114611d5057600080fd5b50565b600081519050611d6281611d3c565b92915050565b600060208284031215611d7e57611d7d611aae565b5b6000611d8c84828501611d53565b91505092915050565b6000608082019050611daa6000830187611bea565b611db76020830186611bea565b611dc46040830185611a84565b611dd16060830184611a84565b95945050505050565b600082825260208201905092915050565b7fe8aea2e58d95e4b88de5ad98e59ca80000000000000000000000000000000000600082015250565b6000611e21600f83611dda565b9150611e2c82611deb565b602082019050919050565b60006020820190508181036000830152611e5081611e14565b9050919050565b7fe58faae69c89e8aea2e58d95e5889be5bbbae88085e6898de883bde588a0e99960008201527fa4e8aea2e58d9500000000000000000000000000000000000000000000000000602082015250565b6000611eb3602783611dda565b9150611ebe82611e57565b604082019050919050565b60006020820190508181036000830152611ee281611ea6565b9050919050565b600060e082019050611efe600083018a611a84565b611f0b6020830189611bea565b611f186040830188611bea565b611f256060830187611a84565b611f326080830186611bea565b611f3f60a0830185611a84565b611f4c60c0830184611a84565b98975050505050505050565b7fe8aea2e58d95e4b88de5ad98e59ca8e68896e78ab6e68081e5bc82e5b8b80000600082015250565b6000611f8e601e83611dda565b9150611f9982611f58565b602082019050919050565b60006020820190508181036000830152611fbd81611f81565b9050919050565b6000604082019050611fd96000830185611bea565b611fe66020830184611a84565b9392505050565b7f4e487b7100000000000000000000000000000000000000000000000000000000600052601160045260246000fd5b600061202782611a7a565b915061203283611a7a565b925082820190508082111561204a57612049611fed565b5b92915050565b7f536166654d6174683a206164646974696f6e206f766572666c6f770000000000600082015250565b6000612086601b83611dda565b915061209182612050565b602082019050919050565b600060208201905081810360008301526120b581612079565b9050919050565b7f536166654d6174683a207375627472616374696f6e206f766572666c6f770000600082015250565b60006120f2601e83611dda565b91506120fd826120bc565b602082019050919050565b60006020820190508181036000830152612121816120e5565b9050919050565b600061213382611a7a565b915061213e83611a7a565b925082820390508181111561215657612155611fed565b5b92915050565b600061010082019050612172600083018b611a84565b61217f602083018a611bea565b61218c6040830189611bea565b6121996060830188611a84565b6121a66080830187611bea565b6121b360a0830186611a84565b6121c060c0830185611bea565b6121cd60e0830184611a84565b9998505050505050505050565b60006121e582611a7a565b91506121f083611a7a565b92508282026121fe81611a7a565b9150828204841483151761221557612214611fed565b5b5092915050565b7f4e487b7100000000000000000000000000000000000000000000000000000000600052601260045260246000fd5b600061225682611a7a565b915061226183611a7a565b9250826122715761227061221c565b5b828204905092915050565b7f536166654d6174683a206d756c7469706c69636174696f6e206f766572666c6f60008201527f7700000000000000000000000000000000000000000000000000000000000000602082015250565b60006122d8602183611dda565b91506122e38261227c565b604082019050919050565b60006020820190508181036000830152612307816122cb565b9050919050565b7f536166654d6174683a206469766973696f6e206279207a65726f000000000000600082015250565b6000612344601a83611dda565b915061234f8261230e565b602082019050919050565b6000602082019050818103600083015261237381612337565b905091905056fea264697066735822122079c4b8ac26ce8814c3a0b9535fcdcef7988b5c5d52e316c7ca653ca6eba31bad64736f6c63430008150033",
  "immutableReferences": {},
  "source": "// SPDX-License-Identifier: MIT\r\npragma solidity ^0.8.21;\r\nimport \"openzeppelin-solidity/contracts/math/SafeMath.sol\";\r\nimport \"truffle/console.sol\";\r\nimport \"./Leepcoin.sol\";\r\ncontract Exchange {\r\n    using SafeMath for uint256;\r\n    // \r\n    address public feeAccount;\r\n    uint256 public feePercent; // \r\n    address constant ETHER = address(0);\r\n    \r\n    struct _Order {\r\n        uint256 id; // \r\n        address user; // \r\n        address tokenGet; // \r\n        uint256 amountGet; // \r\n        address tokenGive; // \r\n        uint256 amountGive; // \r\n        uint256 timestamp; // \r\n        uint256 status; // 0=1=2=\r\n    }\r\n\r\n    mapping(uint256 => _Order) public orders;\r\n    uint256 public orderCount;\r\n\r\n    event Deposit(address token, address user, uint256 value, uint256 balance);\r\n    event Withdraw(address token, address user, uint256 value, uint256 balance);\r\n    event Order(uint256 id, address user, address tokenGet, uint256 amountGet, address tokenGive, uint256 amountGive, uint256 timestamp);\r\n    event Cancel(uint256 id, address user, address tokenGet, uint256 amountGet, address tokenGive, uint256 amountGive, uint256 timestamp);\r\n    event Trade(uint256 id, address user, address tokenGet, uint256 amountGet, address tokenGive, uint256 amountGive, address userFill, uint256 timestamp);\r\n    //   \r\n    mapping(address => mapping(address => uint256)) public tokens;\r\n    constructor (address _feeAccount, uint256 _feePercent) {\r\n        feeAccount = _feeAccount;\r\n        feePercent = _feePercent;\r\n    }\r\n\r\n    // \r\n    function depositEther () public payable {\r\n        tokens[ETHER][msg.sender] = tokens[ETHER][msg.sender].add(msg.value);\r\n        emit Deposit(ETHER, msg.sender, msg.value, tokens[ETHER][msg.sender]);\r\n    }\r\n\r\n    // \r\n    /**\r\n     * @dev ERC20\r\n     * @param _token  - \r\n     * @param _amount \r\n     */\r\n    function depositToken (address _token, uint256 _amount) public {\r\n        // \r\n        require(_token!=ETHER);\r\n        // _tokenLeepCointransferFrom\r\n        require(LeepCoin(_token).transferFrom(msg.sender, address(this), _amount));\r\n        // _token\r\n        tokens[_token][msg.sender] = tokens[_token][msg.sender].add(_amount);\r\n        // deposit\r\n        emit Deposit(_token, msg.sender,_amount, tokens[_token][msg.sender]);\r\n    }\r\n\r\n    // \r\n    function withdrawEhter(uint256 _amount) public {\r\n        tokens[ETHER][msg.sender] = tokens[ETHER][msg.sender].sub(_amount);\r\n        payable(msg.sender).transfer(_amount);\r\n        emit Withdraw(ETHER, msg.sender,_amount, tokens[ETHER][msg.sender]);\r\n    }\r\n    \r\n    // \r\n    function withdrawOther(address _token, uint256 _amount) public {\r\n        // \r\n        require(_token!=ETHER);\r\n        // _tokenLeepCointransferFrom\r\n        require(LeepCoin(_token).transfer(msg.sender, _amount));\r\n        // _token\r\n        tokens[_token][msg.sender] = tokens[_token][msg.sender].sub(_amount);\r\n        // Withdraw\r\n        emit Withdraw(_token, msg.sender, _amount, tokens[_token][msg.sender]);\r\n    }\r\n\r\n    // \r\n    function balanceOf(address _token, address _user) public view returns (uint256){\r\n        return tokens[_token][_user];\r\n    }\r\n\r\n    // \r\n    function makeOrder(\r\n        address tokenGet, \r\n        uint256 amountGet, \r\n        address tokenGive, \r\n        uint256 amountGive\r\n    ) public {\r\n        orderCount = orderCount.add(1);\r\n        orders[orderCount] = _Order(\r\n            orderCount, \r\n            msg.sender, \r\n            tokenGet, \r\n            amountGet,\r\n            tokenGive,\r\n            amountGive,\r\n            block.timestamp,\r\n            0 // \r\n        );\r\n        emit Order(orderCount, msg.sender, tokenGet, amountGet, tokenGive, amountGive, block.timestamp);\r\n        // \r\n    }\r\n    // \r\n    function cancelOrder(uint256 _id) public {\r\n        // \r\n        _Order storage _order = orders[_id];\r\n        \r\n        // ID00\r\n        require(_order.id == _id, unicode\"\");\r\n        \r\n        // \r\n        require(_order.user == msg.sender, unicode\"\");\r\n        \r\n        // \r\n        orders[_id].status = 1;\r\n        \r\n        // Cancel\r\n        emit Cancel(_id, _order.user, _order.tokenGet, _order.amountGet, _order.tokenGive, _order.amountGive, block.timestamp);\r\n    }\r\n    \r\n    // \r\n    function fillOrder(uint256 _id) public {\r\n        // \r\n        require(orders[_id].id == _id && orders[_id].status == 0, unicode\"\");\r\n        \r\n        // \r\n        _Order storage _order = orders[_id];\r\n        \r\n        // \r\n        _trade(\r\n            _order.id,\r\n            _order.user,\r\n            _order.tokenGet,\r\n            _order.amountGet,\r\n            _order.tokenGive,\r\n            _order.amountGive\r\n        );\r\n        \r\n        // \r\n        orders[_id].status = 2;\r\n    }\r\n    \r\n    // \r\n    function _trade(\r\n        uint256 _orderId,\r\n        address _user,\r\n        address _tokenGet,\r\n        uint256 _amountGet,\r\n        address _tokenGive,\r\n        uint256 _amountGive\r\n    ) internal {\r\n        // \r\n        uint256 feeAmount = _amountGive.mul(feePercent).div(100);\r\n        \r\n        // \r\n        tokens[_tokenGive][msg.sender] = tokens[_tokenGive][msg.sender].sub(_amountGive.add(feeAmount));\r\n        \r\n        // \r\n        tokens[_tokenGive][_user] = tokens[_tokenGive][_user].add(_amountGive);\r\n        \r\n        // \r\n        tokens[_tokenGive][feeAccount] = tokens[_tokenGive][feeAccount].add(feeAmount);\r\n        \r\n        // \r\n        tokens[_tokenGet][_user] = tokens[_tokenGet][_user].sub(_amountGet);\r\n        \r\n        // \r\n        tokens[_tokenGet][msg.sender] = tokens[_tokenGet][msg.sender].add(_amountGet);\r\n        \r\n        // Trade\r\n        emit Trade(\r\n            _orderId,\r\n            _user,\r\n            _tokenGet,\r\n            _amountGet,\r\n            _tokenGive,\r\n            _amountGive,\r\n            msg.sender,\r\n            block.timestamp\r\n        );\r\n    }\r\n}",
  "sourcePath": "D:\\code-example\\test\\truffle-project\\contracts\\Exchange.sol",
  "compiler": {
    "name": "solc",
    "version": "0.8.21+commit.d9974bed.Emscripten.clang"
  },
  "schemaVersion": "3.4.16",
  "updatedAt": "2025-12-22T14:12:18.244Z",
  "networkType": "ethereum",
  "devdoc": {
    "kind": "dev",
    "methods": {
      "depositToken(address,uint256)": {
        "details": "ERC20",
        "params": {
          "_amount": "",
          "_token": " - "
        }
      }
    },
    "version": 1
  },
  "userdoc": {
    "kind": "user",
    "methods": {},
    "version": 1
  }
}