{
  "contractName": "Exchange",
  "abi": [
    {
      "inputs": [
        {
          "internalType": "address",
          "name": "_feeAccount",
          "type": "address"
        },
        {
          "internalType": "uint256",
          "name": "_feePercent",
          "type": "uint256"
        }
      ],
      "stateMutability": "nonpayable",
      "type": "constructor"
    },
    {
      "anonymous": false,
      "inputs": [
        {
          "indexed": false,
          "internalType": "uint256",
          "name": "id",
          "type": "uint256"
        },
        {
          "indexed": false,
          "internalType": "address",
          "name": "user",
          "type": "address"
        },
        {
          "indexed": false,
          "internalType": "address",
          "name": "tokenGet",
          "type": "address"
        },
        {
          "indexed": false,
          "internalType": "uint256",
          "name": "amountGet",
          "type": "uint256"
        },
        {
          "indexed": false,
          "internalType": "address",
          "name": "tokenGive",
          "type": "address"
        },
        {
          "indexed": false,
          "internalType": "uint256",
          "name": "amountGive",
          "type": "uint256"
        },
        {
          "indexed": false,
          "internalType": "uint256",
          "name": "timestamp",
          "type": "uint256"
        }
      ],
      "name": "Cancel",
      "type": "event"
    },
    {
      "anonymous": false,
      "inputs": [
        {
          "indexed": false,
          "internalType": "address",
          "name": "token",
          "type": "address"
        },
        {
          "indexed": false,
          "internalType": "address",
          "name": "user",
          "type": "address"
        },
        {
          "indexed": false,
          "internalType": "uint256",
          "name": "value",
          "type": "uint256"
        },
        {
          "indexed": false,
          "internalType": "uint256",
          "name": "balance",
          "type": "uint256"
        }
      ],
      "name": "Deposit",
      "type": "event"
    },
    {
      "anonymous": false,
      "inputs": [
        {
          "indexed": false,
          "internalType": "uint256",
          "name": "id",
          "type": "uint256"
        },
        {
          "indexed": false,
          "internalType": "address",
          "name": "user",
          "type": "address"
        },
        {
          "indexed": false,
          "internalType": "address",
          "name": "tokenGet",
          "type": "address"
        },
        {
          "indexed": false,
          "internalType": "uint256",
          "name": "amountGet",
          "type": "uint256"
        },
        {
          "indexed": false,
          "internalType": "address",
          "name": "tokenGive",
          "type": "address"
        },
        {
          "indexed": false,
          "internalType": "uint256",
          "name": "amountGive",
          "type": "uint256"
        },
        {
          "indexed": false,
          "internalType": "uint256",
          "name": "timestamp",
          "type": "uint256"
        }
      ],
      "name": "Order",
      "type": "event"
    },
    {
      "anonymous": false,
      "inputs": [
        {
          "indexed": false,
          "internalType": "uint256",
          "name": "id",
          "type": "uint256"
        },
        {
          "indexed": false,
          "internalType": "address",
          "name": "user",
          "type": "address"
        },
        {
          "indexed": false,
          "internalType": "address",
          "name": "tokenGet",
          "type": "address"
        },
        {
          "indexed": false,
          "internalType": "uint256",
          "name": "amountGet",
          "type": "uint256"
        },
        {
          "indexed": false,
          "internalType": "address",
          "name": "tokenGive",
          "type": "address"
        },
        {
          "indexed": false,
          "internalType": "uint256",
          "name": "amountGive",
          "type": "uint256"
        },
        {
          "indexed": false,
          "internalType": "address",
          "name": "userFill",
          "type": "address"
        },
        {
          "indexed": false,
          "internalType": "uint256",
          "name": "timestamp",
          "type": "uint256"
        }
      ],
      "name": "Trade",
      "type": "event"
    },
    {
      "anonymous": false,
      "inputs": [
        {
          "indexed": false,
          "internalType": "address",
          "name": "token",
          "type": "address"
        },
        {
          "indexed": false,
          "internalType": "address",
          "name": "user",
          "type": "address"
        },
        {
          "indexed": false,
          "internalType": "uint256",
          "name": "value",
          "type": "uint256"
        },
        {
          "indexed": false,
          "internalType": "uint256",
          "name": "balance",
          "type": "uint256"
        }
      ],
      "name": "Withdraw",
      "type": "event"
    },
    {
      "inputs": [],
      "name": "feeAccount",
      "outputs": [
        {
          "internalType": "address",
          "name": "",
          "type": "address"
        }
      ],
      "stateMutability": "view",
      "type": "function"
    },
    {
      "inputs": [],
      "name": "feePercent",
      "outputs": [
        {
          "internalType": "uint256",
          "name": "",
          "type": "uint256"
        }
      ],
      "stateMutability": "view",
      "type": "function"
    },
    {
      "inputs": [],
      "name": "orderCount",
      "outputs": [
        {
          "internalType": "uint256",
          "name": "",
          "type": "uint256"
        }
      ],
      "stateMutability": "view",
      "type": "function"
    },
    {
      "inputs": [
        {
          "internalType": "uint256",
          "name": "",
          "type": "uint256"
        }
      ],
      "name": "orders",
      "outputs": [
        {
          "internalType": "uint256",
          "name": "id",
          "type": "uint256"
        },
        {
          "internalType": "address",
          "name": "user",
          "type": "address"
        },
        {
          "internalType": "address",
          "name": "tokenGet",
          "type": "address"
        },
        {
          "internalType": "uint256",
          "name": "amountGet",
          "type": "uint256"
        },
        {
          "internalType": "address",
          "name": "tokenGive",
          "type": "address"
        },
        {
          "internalType": "uint256",
          "name": "amountGive",
          "type": "uint256"
        },
        {
          "internalType": "uint256",
          "name": "timestamp",
          "type": "uint256"
        },
        {
          "internalType": "uint256",
          "name": "status",
          "type": "uint256"
        }
      ],
      "stateMutability": "view",
      "type": "function"
    },
    {
      "inputs": [
        {
          "internalType": "address",
          "name": "",
          "type": "address"
        },
        {
          "internalType": "address",
          "name": "",
          "type": "address"
        }
      ],
      "name": "tokens",
      "outputs": [
        {
          "internalType": "uint256",
          "name": "",
          "type": "uint256"
        }
      ],
      "stateMutability": "view",
      "type": "function"
    },
    {
      "inputs": [],
      "name": "depositEther",
      "outputs": [],
      "stateMutability": "payable",
      "type": "function"
    },
    {
      "inputs": [
        {
          "internalType": "address",
          "name": "_token",
          "type": "address"
        },
        {
          "internalType": "uint256",
          "name": "_amount",
          "type": "uint256"
        }
      ],
      "name": "depositToken",
      "outputs": [],
      "stateMutability": "nonpayable",
      "type": "function"
    },
    {
      "inputs": [
        {
          "internalType": "uint256",
          "name": "_amount",
          "type": "uint256"
        }
      ],
      "name": "withdrawEhter",
      "outputs": [],
      "stateMutability": "nonpayable",
      "type": "function"
    },
    {
      "inputs": [
        {
          "internalType": "address",
          "name": "_token",
          "type": "address"
        },
        {
          "internalType": "uint256",
          "name": "_amount",
          "type": "uint256"
        }
      ],
      "name": "withdrawOther",
      "outputs": [],
      "stateMutability": "nonpayable",
      "type": "function"
    },
    {
      "inputs": [
        {
          "internalType": "address",
          "name": "_token",
          "type": "address"
        },
        {
          "internalType": "address",
          "name": "_user",
          "type": "address"
        }
      ],
      "name": "balanceOf",
      "outputs": [
        {
          "internalType": "uint256",
          "name": "",
          "type": "uint256"
        }
      ],
      "stateMutability": "view",
      "type": "function"
    },
    {
      "inputs": [
        {
          "internalType": "address",
          "name": "tokenGet",
          "type": "address"
        },
        {
          "internalType": "uint256",
          "name": "amountGet",
          "type": "uint256"
        },
        {
          "internalType": "address",
          "name": "tokenGive",
          "type": "address"
        },
        {
          "internalType": "uint256",
          "name": "amountGive",
          "type": "uint256"
        }
      ],
      "name": "makeOrder",
      "outputs": [],
      "stateMutability": "nonpayable",
      "type": "function"
    },
    {
      "inputs": [
        {
          "internalType": "uint256",
          "name": "_id",
          "type": "uint256"
        }
      ],
      "name": "cancelOrder",
      "outputs": [],
      "stateMutability": "nonpayable",
      "type": "function"
    },
    {
      "inputs": [
        {
          "internalType": "uint256",
          "name": "_id",
          "type": "uint256"
        }
      ],
      "name": "fillOrder",
      "outputs": [],
      "stateMutability": "nonpayable",
      "type": "function"
    }
  ],
  "bytecode": "0x60806040523480156200001157600080fd5b5060405162001d3f38038062001d3f83398181016040528101906200003791906200012b565b816000806101000a81548173ffffffffffffffffffffffffffffffffffffffff021916908373ffffffffffffffffffffffffffffffffffffffff16021790555080600181905550505062000172565b600080fd5b600073ffffffffffffffffffffffffffffffffffffffff82169050919050565b6000620000b8826200008b565b9050919050565b620000ca81620000ab565b8114620000d657600080fd5b50565b600081519050620000ea81620000bf565b92915050565b6000819050919050565b6200010581620000f0565b81146200011157600080fd5b50565b6000815190506200012581620000fa565b92915050565b6000806040838503121562000145576200014462000086565b5b60006200015585828601620000d9565b9250506020620001688582860162000114565b9150509250929050565b611bbd80620001826000396000f3fe6080604052600436106100df576000357c01000000000000000000000000000000000000000000000000000000009004806367b830ad1161009c57806398ea5fca1161007657806398ea5fca1461026f5780639a5c90aa14610279578063a85c38ef146102a2578063f7888aec146102e6576100df565b806367b830ad146101f25780636dfcff8e1461021b5780637fd6f15c14610244576100df565b80632453ffa8146100e4578063338b5dea1461010f5780634b5d5e3c14610138578063508493bc14610161578063514fcac71461019e57806365e17c9d146101c7575b600080fd5b3480156100f057600080fd5b506100f9610323565b6040516101069190611476565b60405180910390f35b34801561011b57600080fd5b5061013660048036038101906101319190611520565b610329565b005b34801561014457600080fd5b5061015f600480360381019061015a9190611560565b610557565b005b34801561016d57600080fd5b506101886004803603810190610183919061158d565b6106ee565b6040516101959190611476565b60405180910390f35b3480156101aa57600080fd5b506101c560048036038101906101c09190611560565b610713565b005b3480156101d357600080fd5b506101dc6108d9565b6040516101e991906115dc565b60405180910390f35b3480156101fe57600080fd5b5061021960048036038101906102149190611560565b6108fd565b005b34801561022757600080fd5b50610242600480360381019061023d9190611520565b610a33565b005b34801561025057600080fd5b50610259610c5f565b6040516102669190611476565b60405180910390f35b610277610c65565b005b34801561028557600080fd5b506102a0600480360381019061029b91906115f7565b610db4565b005b3480156102ae57600080fd5b506102c960048036038101906102c49190611560565b610fb7565b6040516102dd98979695949392919061165e565b60405180910390f35b3480156102f257600080fd5b5061030d6004803603810190610308919061158d565b61105f565b60405161031a9190611476565b60405180910390f35b60035481565b600073ffffffffffffffffffffffffffffffffffffffff168273ffffffffffffffffffffffffffffffffffffffff160361036257600080fd5b8173ffffffffffffffffffffffffffffffffffffffff166323b872dd3330846040518463ffffffff167c01000000000000000000000000000000000000000000000000000000000281526004016103bb939291906116dc565b6020604051808303816000875af11580156103da573d6000803e3d6000fd5b505050506040513d601f19601f820116820180604052508101906103fe919061174b565b61040757600080fd5b80600460008473ffffffffffffffffffffffffffffffffffffffff1673ffffffffffffffffffffffffffffffffffffffff16815260200190815260200160002060003373ffffffffffffffffffffffffffffffffffffffff1673ffffffffffffffffffffffffffffffffffffffff168152602001908152602001600020600082825461049391906117a7565b925050819055507fdcbc1c05240f31ff3ad067ef1ee35ce4997762752e3a095284754544f4c709d7823383600460008773ffffffffffffffffffffffffffffffffffffffff1673ffffffffffffffffffffffffffffffffffffffff16815260200190815260200160002060003373ffffffffffffffffffffffffffffffffffffffff1673ffffffffffffffffffffffffffffffffffffffff1681526020019081526020016000205460405161054b94939291906117db565b60405180910390a15050565b80600460008073ffffffffffffffffffffffffffffffffffffffff1673ffffffffffffffffffffffffffffffffffffffff16815260200190815260200160002060003373ffffffffffffffffffffffffffffffffffffffff1673ffffffffffffffffffffffffffffffffffffffff16815260200190815260200160002060008282546105e39190611820565b925050819055503373ffffffffffffffffffffffffffffffffffffffff166108fc829081150290604051600060405180830381858888f19350505050158015610630573d6000803e3d6000fd5b507ff341246adaac6f497bc2a656f546ab9e182111d630394f0c57c710a59a2cb56760003383600460008073ffffffffffffffffffffffffffffffffffffffff1673ffffffffffffffffffffffffffffffffffffffff16815260200190815260200160002060003373ffffffffffffffffffffffffffffffffffffffff1673ffffffffffffffffffffffffffffffffffffffff168152602001908152602001600020546040516106e394939291906117db565b60405180910390a150565b6004602052816000526040600020602052806000526040600020600091509150505481565b600060026000838152602001908152602001600020905081816000015414610770576040517f08c379a0000000000000000000000000000000000000000000000000000000008152600401610767906118b1565b60405180910390fd5b3373ffffffffffffffffffffffffffffffffffffffff168160010160009054906101000a900473ffffffffffffffffffffffffffffffffffffffff1673ffffffffffffffffffffffffffffffffffffffff1614610802576040517f08c379a00000000000000000000000000000000000000000000000000000000081526004016107f990611943565b60405180910390fd5b600160026000848152602001908152602001600020600701819055507f77de1da0be5f2d3b110d05c6694e5c4ff2d9da7cd23d84353ecf78c7b5acec61828260010160009054906101000a900473ffffffffffffffffffffffffffffffffffffffff168360020160009054906101000a900473ffffffffffffffffffffffffffffffffffffffff1684600301548560040160009054906101000a900473ffffffffffffffffffffffffffffffffffffffff168660050154426040516108cd9796959493929190611963565b60405180910390a15050565b60008054906101000a900473ffffffffffffffffffffffffffffffffffffffff1681565b806002600083815260200190815260200160002060000154148015610938575060006002600083815260200190815260200160002060070154145b610977576040517f08c379a000000000000000000000000000000000000000000000000000000000815260040161096e90611a1e565b60405180910390fd5b6000600260008381526020019081526020016000209050610a1481600001548260010160009054906101000a900473ffffffffffffffffffffffffffffffffffffffff168360020160009054906101000a900473ffffffffffffffffffffffffffffffffffffffff1684600301548560040160009054906101000a900473ffffffffffffffffffffffffffffffffffffffff1686600501546110e6565b6002806000848152602001908152602001600020600701819055505050565b600073ffffffffffffffffffffffffffffffffffffffff168273ffffffffffffffffffffffffffffffffffffffff1603610a6c57600080fd5b8173ffffffffffffffffffffffffffffffffffffffff1663a9059cbb33836040518363ffffffff167c0100000000000000000000000000000000000000000000000000000000028152600401610ac3929190611a3e565b6020604051808303816000875af1158015610ae2573d6000803e3d6000fd5b505050506040513d601f19601f82011682018060405250810190610b06919061174b565b610b0f57600080fd5b80600460008473ffffffffffffffffffffffffffffffffffffffff1673ffffffffffffffffffffffffffffffffffffffff16815260200190815260200160002060003373ffffffffffffffffffffffffffffffffffffffff1673ffffffffffffffffffffffffffffffffffffffff1681526020019081526020016000206000828254610b9b9190611820565b925050819055507ff341246adaac6f497bc2a656f546ab9e182111d630394f0c57c710a59a2cb567823383600460008773ffffffffffffffffffffffffffffffffffffffff1673ffffffffffffffffffffffffffffffffffffffff16815260200190815260200160002060003373ffffffffffffffffffffffffffffffffffffffff1673ffffffffffffffffffffffffffffffffffffffff16815260200190815260200160002054604051610c5394939291906117db565b60405180910390a15050565b60015481565b34600460008073ffffffffffffffffffffffffffffffffffffffff1673ffffffffffffffffffffffffffffffffffffffff16815260200190815260200160002060003373ffffffffffffffffffffffffffffffffffffffff1673ffffffffffffffffffffffffffffffffffffffff1681526020019081526020016000206000828254610cf191906117a7565b925050819055507fdcbc1c05240f31ff3ad067ef1ee35ce4997762752e3a095284754544f4c709d760003334600460008073ffffffffffffffffffffffffffffffffffffffff1673ffffffffffffffffffffffffffffffffffffffff16815260200190815260200160002060003373ffffffffffffffffffffffffffffffffffffffff1673ffffffffffffffffffffffffffffffffffffffff16815260200190815260200160002054604051610daa94939291906117db565b60405180910390a1565b600160036000828254610dc791906117a7565b9250508190555060405180610100016040528060035481526020013373ffffffffffffffffffffffffffffffffffffffff1681526020018573ffffffffffffffffffffffffffffffffffffffff1681526020018481526020018373ffffffffffffffffffffffffffffffffffffffff16815260200182815260200142815260200160008152506002600060035481526020019081526020016000206000820151816000015560208201518160010160006101000a81548173ffffffffffffffffffffffffffffffffffffffff021916908373ffffffffffffffffffffffffffffffffffffffff16021790555060408201518160020160006101000a81548173ffffffffffffffffffffffffffffffffffffffff021916908373ffffffffffffffffffffffffffffffffffffffff1602179055506060820151816003015560808201518160040160006101000a81548173ffffffffffffffffffffffffffffffffffffffff021916908373ffffffffffffffffffffffffffffffffffffffff16021790555060a0820151816005015560c0820151816006015560e082015181600701559050507f9d33853d43e3607b4cc01fdc78338ff2dca6fef7db9232dae6d3eb55fbc3b109600354338686868642604051610fa99796959493929190611963565b60405180910390a150505050565b60026020528060005260406000206000915090508060000154908060010160009054906101000a900473ffffffffffffffffffffffffffffffffffffffff16908060020160009054906101000a900473ffffffffffffffffffffffffffffffffffffffff16908060030154908060040160009054906101000a900473ffffffffffffffffffffffffffffffffffffffff16908060050154908060060154908060070154905088565b6000600460008473ffffffffffffffffffffffffffffffffffffffff1673ffffffffffffffffffffffffffffffffffffffff16815260200190815260200160002060008373ffffffffffffffffffffffffffffffffffffffff1673ffffffffffffffffffffffffffffffffffffffff16815260200190815260200160002054905092915050565b60006064600154836110f89190611a67565b6111029190611ad8565b9050808261111091906117a7565b600460008573ffffffffffffffffffffffffffffffffffffffff1673ffffffffffffffffffffffffffffffffffffffff16815260200190815260200160002060003373ffffffffffffffffffffffffffffffffffffffff1673ffffffffffffffffffffffffffffffffffffffff168152602001908152602001600020600082825461119b9190611820565b9250508190555081600460008573ffffffffffffffffffffffffffffffffffffffff1673ffffffffffffffffffffffffffffffffffffffff16815260200190815260200160002060008873ffffffffffffffffffffffffffffffffffffffff1673ffffffffffffffffffffffffffffffffffffffff168152602001908152602001600020600082825461122e91906117a7565b9250508190555080600460008573ffffffffffffffffffffffffffffffffffffffff1673ffffffffffffffffffffffffffffffffffffffff16815260200190815260200160002060008060009054906101000a900473ffffffffffffffffffffffffffffffffffffffff1673ffffffffffffffffffffffffffffffffffffffff1673ffffffffffffffffffffffffffffffffffffffff16815260200190815260200160002060008282546112e291906117a7565b9250508190555083600460008773ffffffffffffffffffffffffffffffffffffffff1673ffffffffffffffffffffffffffffffffffffffff16815260200190815260200160002060008873ffffffffffffffffffffffffffffffffffffffff1673ffffffffffffffffffffffffffffffffffffffff16815260200190815260200160002060008282546113759190611820565b9250508190555083600460008773ffffffffffffffffffffffffffffffffffffffff1673ffffffffffffffffffffffffffffffffffffffff16815260200190815260200160002060003373ffffffffffffffffffffffffffffffffffffffff1673ffffffffffffffffffffffffffffffffffffffff168152602001908152602001600020600082825461140891906117a7565b925050819055507f0dddf4182dc0fc1a311cb75f049c97403c6b8a99cf6b2229a36e7c526acb3f81878787878787334260405161144c989796959493929190611b09565b60405180910390a150505050505050565b6000819050919050565b6114708161145d565b82525050565b600060208201905061148b6000830184611467565b92915050565b600080fd5b600073ffffffffffffffffffffffffffffffffffffffff82169050919050565b60006114c182611496565b9050919050565b6114d1816114b6565b81146114dc57600080fd5b50565b6000813590506114ee816114c8565b92915050565b6114fd8161145d565b811461150857600080fd5b50565b60008135905061151a816114f4565b92915050565b6000806040838503121561153757611536611491565b5b6000611545858286016114df565b92505060206115568582860161150b565b9150509250929050565b60006020828403121561157657611575611491565b5b60006115848482850161150b565b91505092915050565b600080604083850312156115a4576115a3611491565b5b60006115b2858286016114df565b92505060206115c3858286016114df565b9150509250929050565b6115d6816114b6565b82525050565b60006020820190506115f160008301846115cd565b92915050565b6000806000806080858703121561161157611610611491565b5b600061161f878288016114df565b94505060206116308782880161150b565b9350506040611641878288016114df565b92505060606116528782880161150b565b91505092959194509250565b600061010082019050611674600083018b611467565b611681602083018a6115cd565b61168e60408301896115cd565b61169b6060830188611467565b6116a860808301876115cd565b6116b560a0830186611467565b6116c260c0830185611467565b6116cf60e0830184611467565b9998505050505050505050565b60006060820190506116f160008301866115cd565b6116fe60208301856115cd565b61170b6040830184611467565b949350505050565b60008115159050919050565b61172881611713565b811461173357600080fd5b50565b6000815190506117458161171f565b92915050565b60006020828403121561176157611760611491565b5b600061176f84828501611736565b91505092915050565b7f4e487b7100000000000000000000000000000000000000000000000000000000600052601160045260246000fd5b60006117b28261145d565b91506117bd8361145d565b92508282019050808211156117d5576117d4611778565b5b92915050565b60006080820190506117f060008301876115cd565b6117fd60208301866115cd565b61180a6040830185611467565b6118176060830184611467565b95945050505050565b600061182b8261145d565b91506118368361145d565b925082820390508181111561184e5761184d611778565b5b92915050565b600082825260208201905092915050565b7fe8aea2e58d95e4b88de5ad98e59ca80000000000000000000000000000000000600082015250565b600061189b600f83611854565b91506118a682611865565b602082019050919050565b600060208201905081810360008301526118ca8161188e565b9050919050565b7fe58faae69c89e8aea2e58d95e5889be5bbbae88085e6898de883bde588a0e99960008201527fa4e8aea2e58d9500000000000000000000000000000000000000000000000000602082015250565b600061192d602783611854565b9150611938826118d1565b604082019050919050565b6000602082019050818103600083015261195c81611920565b9050919050565b600060e082019050611978600083018a611467565b61198560208301896115cd565b61199260408301886115cd565b61199f6060830187611467565b6119ac60808301866115cd565b6119b960a0830185611467565b6119c660c0830184611467565b98975050505050505050565b7fe8aea2e58d95e4b88de5ad98e59ca8e68896e78ab6e68081e5bc82e5b8b80000600082015250565b6000611a08601e83611854565b9150611a13826119d2565b602082019050919050565b60006020820190508181036000830152611a37816119fb565b9050919050565b6000604082019050611a5360008301856115cd565b611a606020830184611467565b9392505050565b6000611a728261145d565b9150611a7d8361145d565b9250828202611a8b8161145d565b91508282048414831517611aa257611aa1611778565b5b5092915050565b7f4e487b7100000000000000000000000000000000000000000000000000000000600052601260045260246000fd5b6000611ae38261145d565b9150611aee8361145d565b925082611afe57611afd611aa9565b5b828204905092915050565b600061010082019050611b1f600083018b611467565b611b2c602083018a6115cd565b611b3960408301896115cd565b611b466060830188611467565b611b5360808301876115cd565b611b6060a0830186611467565b611b6d60c08301856115cd565b611b7a60e0830184611467565b999850505050505050505056fea2646970667358221220bacf895cb25837b794a32ac550916084e4df9c4c258379c0ca0fe3b394712cf464736f6c63430008150033",
  "immutableReferences": {},
  "source": "// SPDX-License-Identifier: MIT\npragma solidity ^0.8.21;\nimport \"truffle/console.sol\";\nimport \"./LeepCoin.sol\";\ncontract Exchange {\n    // \n    address public feeAccount;\n    uint256 public feePercent; // \n    address constant ETHER = address(0);\n\n    struct _Order {\n        uint256 id; // \n        address user; // \n        address tokenGet; // \n        uint256 amountGet; // \n        address tokenGive; // \n        uint256 amountGive; // \n        uint256 timestamp; // \n        uint256 status; // 0=1=2=   \n    }\n\n    mapping(uint256 => _Order) public orders;\n    uint256 public orderCount;\n\n    event Deposit(address token, address user, uint256 value, uint256 balance);\n    event Withdraw(address token, address user, uint256 value, uint256 balance);\n    event Order(uint256 id, address user, address tokenGet, uint256 amountGet, address tokenGive, uint256 amountGive, uint256 timestamp);\n    event Cancel(uint256 id, address user, address tokenGet, uint256 amountGet, address tokenGive, uint256 amountGive, uint256 timestamp);\n    event Trade(uint256 id, address user, address tokenGet, uint256 amountGet, address tokenGive, uint256 amountGive, address userFill, uint256 timestamp);\n    \n    mapping(address => mapping(address => uint256)) public tokens;    \n    \n    constructor (address _feeAccount, uint256 _feePercent) {\n        feeAccount = _feeAccount;\n        feePercent = _feePercent;\n    }\n\n    // \n    function depositEther () public payable {\n        tokens[ETHER][msg.sender] += msg.value;\n        emit Deposit(ETHER, msg.sender, msg.value, tokens[ETHER][msg.sender]);\n    }\n\n    // \n    function depositToken (address _token, uint256 _amount) public {\n        require(_token!=ETHER);\n        require(LeepCoin(_token).transferFrom(msg.sender, address(this), _amount));\n        tokens[_token][msg.sender] += _amount;\n        emit Deposit(_token, msg.sender,_amount, tokens[_token][msg.sender]);\n    }\n\n    // \n    function withdrawEhter(uint256 _amount) public {\n        tokens[ETHER][msg.sender] -= _amount;\n        payable(msg.sender).transfer(_amount);\n        emit Withdraw(ETHER, msg.sender,_amount, tokens[ETHER][msg.sender]);\n    }\n\n    // \n    function withdrawOther(address _token, uint256 _amount) public {\n        require(_token!=ETHER);\n        require(LeepCoin(_token).transfer(msg.sender, _amount));  \n        tokens[_token][msg.sender] -= _amount;\n        emit Withdraw(_token, msg.sender, _amount, tokens[_token][msg.sender]);\n    }\n\n    // \n    function balanceOf(address _token, address _user) public view returns (uint256){\n        return tokens[_token][_user];\n    }\n\n    // \n    function makeOrder(\n        address tokenGet,\n        uint256 amountGet,\n        address tokenGive,\n        uint256 amountGive\n    ) public {\n        orderCount += 1;\n        orders[orderCount] = _Order(\n            orderCount,\n            msg.sender,\n            tokenGet,\n            amountGet,\n            tokenGive,\n            amountGive,\n            block.timestamp,\n            0 // \n        );\n        emit Order(orderCount, msg.sender, tokenGet, amountGet, tokenGive, amountGive, block.timestamp);\n    }\n    \n    // \n    function cancelOrder(uint256 _id) public {\n        _Order storage _order = orders[_id];\n        require(_order.id == _id, unicode\"\");\n        require(_order.user == msg.sender, unicode\"\");\n        orders[_id].status = 1;\n        emit Cancel(_id, _order.user, _order.tokenGet, _order.amountGet, _order.tokenGive, _order.amountGive, block.timestamp);     \n    }\n\n    // \n    function fillOrder(uint256 _id) public {\n        require(orders[_id].id == _id && orders[_id].status == 0, unicode\"\");\n        _Order storage _order = orders[_id];\n        _trade(\n            _order.id,\n            _order.user,\n            _order.tokenGet,\n            _order.amountGet,\n            _order.tokenGive,\n            _order.amountGive\n        );\n        orders[_id].status = 2;\n    }\n\n    // \n    function _trade(\n        uint256 _orderId,\n        address _user,\n        address _tokenGet,\n        uint256 _amountGet,\n        address _tokenGive,\n        uint256 _amountGive\n    ) internal {\n        uint256 feeAmount = _amountGive * feePercent / 100;\n        tokens[_tokenGive][msg.sender] -= (_amountGive + feeAmount);\n        tokens[_tokenGive][_user] += _amountGive;\n        tokens[_tokenGive][feeAccount] += feeAmount;\n        tokens[_tokenGet][_user] -= _amountGet;\n        tokens[_tokenGet][msg.sender] += _amountGet;\n        emit Trade(\n            _orderId,\n            _user,\n            _tokenGet,\n            _amountGet,\n            _tokenGive,\n            _amountGive,\n            msg.sender,\n            block.timestamp\n        );\n    }\n}\n",
  "sourcePath": "D:\\code-example\\test\\truffle-project\\contracts\\Exchange.sol",
  "compiler": {
    "name": "solc",
    "version": "0.8.21+commit.d9974bed.Emscripten.clang"
  },
  "schemaVersion": "3.4.16",
  "updatedAt": "2026-01-01T06:15:11.541Z",
  "devdoc": {
    "kind": "dev",
    "methods": {},
    "version": 1
  },
  "userdoc": {
    "kind": "user",
    "methods": {},
    "version": 1
  }
}