{
  "contractName": "LeepCoin",
  "abi": [
    {
      "inputs": [
        {
          "internalType": "uint256",
          "name": "initialSupply",
          "type": "uint256"
        }
      ],
      "stateMutability": "nonpayable",
      "type": "constructor"
    },
    {
      "anonymous": false,
      "inputs": [
        {
          "indexed": true,
          "internalType": "address",
          "name": "owner",
          "type": "address"
        },
        {
          "indexed": true,
          "internalType": "address",
          "name": "spender",
          "type": "address"
        },
        {
          "indexed": false,
          "internalType": "uint256",
          "name": "value",
          "type": "uint256"
        }
      ],
      "name": "Approval",
      "type": "event"
    },
    {
      "anonymous": false,
      "inputs": [
        {
          "indexed": true,
          "internalType": "address",
          "name": "from",
          "type": "address"
        },
        {
          "indexed": true,
          "internalType": "address",
          "name": "to",
          "type": "address"
        },
        {
          "indexed": false,
          "internalType": "uint256",
          "name": "value",
          "type": "uint256"
        }
      ],
      "name": "Transfer",
      "type": "event"
    },
    {
      "inputs": [
        {
          "internalType": "address",
          "name": "",
          "type": "address"
        },
        {
          "internalType": "address",
          "name": "",
          "type": "address"
        }
      ],
      "name": "allowance",
      "outputs": [
        {
          "internalType": "uint256",
          "name": "",
          "type": "uint256"
        }
      ],
      "stateMutability": "view",
      "type": "function"
    },
    {
      "inputs": [
        {
          "internalType": "address",
          "name": "",
          "type": "address"
        }
      ],
      "name": "balanceOf",
      "outputs": [
        {
          "internalType": "uint256",
          "name": "",
          "type": "uint256"
        }
      ],
      "stateMutability": "view",
      "type": "function"
    },
    {
      "inputs": [],
      "name": "decimals",
      "outputs": [
        {
          "internalType": "uint8",
          "name": "",
          "type": "uint8"
        }
      ],
      "stateMutability": "view",
      "type": "function"
    },
    {
      "inputs": [],
      "name": "name",
      "outputs": [
        {
          "internalType": "string",
          "name": "",
          "type": "string"
        }
      ],
      "stateMutability": "view",
      "type": "function"
    },
    {
      "inputs": [],
      "name": "symbol",
      "outputs": [
        {
          "internalType": "string",
          "name": "",
          "type": "string"
        }
      ],
      "stateMutability": "view",
      "type": "function"
    },
    {
      "inputs": [],
      "name": "totalSupply",
      "outputs": [
        {
          "internalType": "uint256",
          "name": "",
          "type": "uint256"
        }
      ],
      "stateMutability": "view",
      "type": "function"
    },
    {
      "inputs": [
        {
          "internalType": "address",
          "name": "from",
          "type": "address"
        },
        {
          "internalType": "address",
          "name": "to",
          "type": "address"
        },
        {
          "internalType": "uint256",
          "name": "value",
          "type": "uint256"
        }
      ],
      "name": "_transfer",
      "outputs": [],
      "stateMutability": "nonpayable",
      "type": "function"
    },
    {
      "inputs": [
        {
          "internalType": "address",
          "name": "to",
          "type": "address"
        },
        {
          "internalType": "uint256",
          "name": "value",
          "type": "uint256"
        }
      ],
      "name": "transfer",
      "outputs": [
        {
          "internalType": "bool",
          "name": "success",
          "type": "bool"
        }
      ],
      "stateMutability": "nonpayable",
      "type": "function"
    },
    {
      "inputs": [
        {
          "internalType": "address",
          "name": "spender",
          "type": "address"
        },
        {
          "internalType": "uint256",
          "name": "value",
          "type": "uint256"
        }
      ],
      "name": "approve",
      "outputs": [
        {
          "internalType": "bool",
          "name": "success",
          "type": "bool"
        }
      ],
      "stateMutability": "nonpayable",
      "type": "function"
    },
    {
      "inputs": [
        {
          "internalType": "address",
          "name": "from",
          "type": "address"
        },
        {
          "internalType": "address",
          "name": "to",
          "type": "address"
        },
        {
          "internalType": "uint256",
          "name": "value",
          "type": "uint256"
        }
      ],
      "name": "transferFrom",
      "outputs": [
        {
          "internalType": "bool",
          "name": "success",
          "type": "bool"
        }
      ],
      "stateMutability": "nonpayable",
      "type": "function"
    }
  ],
  "bytecode": "0x60806040526040518060400160405280600881526020017f4c656570436f696e000000000000000000000000000000000000000000000000815250600090816200004a91906200044c565b506040518060400160405280600481526020017f4c45455000000000000000000000000000000000000000000000000000000000815250600190816200009191906200044c565b506012600260006101000a81548160ff021916908360ff160217905550348015620000bb57600080fd5b5060405162001745380380620017458339818101604052810190620000e1919062000569565b600260009054906101000a900460ff1660ff16600a6200010291906200071e565b816200010f91906200076f565b600381905550600354600460003373ffffffffffffffffffffffffffffffffffffffff1673ffffffffffffffffffffffffffffffffffffffff168152602001908152602001600020819055503373ffffffffffffffffffffffffffffffffffffffff16600073ffffffffffffffffffffffffffffffffffffffff167fddf252ad1be2c89b69c2b068fc378daa952ba7f163c4a11628f55a4df523b3ef600354604051620001bd9190620007cb565b60405180910390a350620007e8565b600081519050919050565b7f4e487b7100000000000000000000000000000000000000000000000000000000600052604160045260246000fd5b7f4e487b7100000000000000000000000000000000000000000000000000000000600052602260045260246000fd5b600060028204905060018216806200024e57607f821691505b60208210810362000264576200026362000206565b5b50919050565b60008190508160005260206000209050919050565b60006020601f8301049050919050565b60008160020a8302905092915050565b600060088302620002d17fffffffffffffffffffffffffffffffffffffffffffffffffffffffffffffffff826200028f565b620002dd86836200028f565b95508019841693508086168417925050509392505050565b6000819050919050565b6000819050919050565b60006200032a620003246200031e84620002f5565b620002ff565b620002f5565b9050919050565b6000819050919050565b620003468362000309565b6200035e620003558262000331565b8484546200029f565b825550505050565b600090565b6200037562000366565b620003828184846200033b565b505050565b5b81811015620003aa576200039e6000826200036b565b60018101905062000388565b5050565b601f821115620003f957620003c3816200026a565b620003ce846200027f565b81016020851015620003de578190505b620003f6620003ed856200027f565b83018262000387565b50505b505050565b60008160020a8304905092915050565b60006200042160001984600802620003fe565b1980831691505092915050565b60006200043c83836200040e565b9150826002028217905092915050565b6200045782620001cc565b67ffffffffffffffff811115620004735762000472620001d7565b5b6200047f825462000235565b6200048c828285620003ae565b600060209050601f831160018114620004c45760008415620004af578287015190505b620004bb85826200042e565b8655506200052b565b601f198416620004d4866200026a565b60005b82811015620004fe57848901518255600182019150602085019450602081019050620004d7565b868310156200051e57848901516200051a601f8916826200040e565b8355505b6001600288020188555050505b505050505050565b600080fd5b6200054381620002f5565b81146200054f57600080fd5b50565b600081519050620005638162000538565b92915050565b60006020828403121562000582576200058162000533565b5b6000620005928482850162000552565b91505092915050565b7f4e487b7100000000000000000000000000000000000000000000000000000000600052601160045260246000fd5b6000600282049050919050565b6000808291508390505b600185111562000629578086048111156200060157620006006200059b565b5b6001851615620006115780820291505b80810290506200062185620005ca565b9450620005e1565b94509492505050565b60008262000644576001905062000717565b8162000654576000905062000717565b81600181146200066d57600281146200067857620006ae565b600191505062000717565b60ff8411156200068d576200068c6200059b565b5b8360020a915084821115620006a757620006a66200059b565b5b5062000717565b5060208310610133831016604e8410600b8410161715620006e85782820a905083811115620006e257620006e16200059b565b5b62000717565b620006f78484846001620005d7565b925090508184048111156200071157620007106200059b565b5b81810290505b9392505050565b60006200072b82620002f5565b91506200073883620002f5565b9250620007677fffffffffffffffffffffffffffffffffffffffffffffffffffffffffffffffff848462000632565b905092915050565b60006200077c82620002f5565b91506200078983620002f5565b92508282026200079981620002f5565b91508282048414831517620007b357620007b26200059b565b5b5092915050565b620007c581620002f5565b82525050565b6000602082019050620007e26000830184620007ba565b92915050565b610f4d80620007f86000396000f3fe608060405234801561001057600080fd5b50600436106100bb576000357c010000000000000000000000000000000000000000000000000000000090048063313ce56711610083578063313ce5671461017857806370a082311461019657806395d89b41146101c6578063a9059cbb146101e4578063dd62ed3e14610214576100bb565b806306fdde03146100c0578063095ea7b3146100de57806318160ddd1461010e57806323b872dd1461012c57806330e0789e1461015c575b600080fd5b6100c8610244565b6040516100d59190610a1e565b60405180910390f35b6100f860048036038101906100f39190610ad9565b6102d2565b6040516101059190610b34565b60405180910390f35b610116610432565b6040516101239190610b5e565b60405180910390f35b61014660048036038101906101419190610b79565b610438565b6040516101539190610b34565b60405180910390f35b61017660048036038101906101719190610b79565b610624565b005b61018061082b565b60405161018d9190610be8565b60405180910390f35b6101b060048036038101906101ab9190610c03565b61083e565b6040516101bd9190610b5e565b60405180910390f35b6101ce610856565b6040516101db9190610a1e565b60405180910390f35b6101fe60048036038101906101f99190610ad9565b6108e4565b60405161020b9190610b34565b60405180910390f35b61022e60048036038101906102299190610c30565b610969565b60405161023b9190610b5e565b60405180910390f35b6000805461025190610c9f565b80601f016020809104026020016040519081016040528092919081815260200182805461027d90610c9f565b80156102ca5780601f1061029f576101008083540402835291602001916102ca565b820191906000526020600020905b8154815290600101906020018083116102ad57829003601f168201915b505050505081565b60008073ffffffffffffffffffffffffffffffffffffffff168373ffffffffffffffffffffffffffffffffffffffff1603610342576040517f08c379a000000000000000000000000000000000000000000000000000000000815260040161033990610d1c565b60405180910390fd5b81600560003373ffffffffffffffffffffffffffffffffffffffff1673ffffffffffffffffffffffffffffffffffffffff16815260200190815260200160002060008573ffffffffffffffffffffffffffffffffffffffff1673ffffffffffffffffffffffffffffffffffffffff168152602001908152602001600020819055508273ffffffffffffffffffffffffffffffffffffffff163373ffffffffffffffffffffffffffffffffffffffff167f8c5be1e5ebec7d5bd14f71427d1e84f3dd0314c0f7b2291e5b200ac8c7c3b925846040516104209190610b5e565b60405180910390a36001905092915050565b60035481565b600081600460008673ffffffffffffffffffffffffffffffffffffffff1673ffffffffffffffffffffffffffffffffffffffff1681526020019081526020016000205410156104bc576040517f08c379a00000000000000000000000000000000000000000000000000000000081526004016104b390610d88565b60405180910390fd5b81600560008673ffffffffffffffffffffffffffffffffffffffff1673ffffffffffffffffffffffffffffffffffffffff16815260200190815260200160002060003373ffffffffffffffffffffffffffffffffffffffff1673ffffffffffffffffffffffffffffffffffffffff16815260200190815260200160002054101561057b576040517f08c379a000000000000000000000000000000000000000000000000000000000815260040161057290610df4565b60405180910390fd5b81600560008673ffffffffffffffffffffffffffffffffffffffff1673ffffffffffffffffffffffffffffffffffffffff16815260200190815260200160002060003373ffffffffffffffffffffffffffffffffffffffff1673ffffffffffffffffffffffffffffffffffffffff16815260200190815260200160002060008282546106079190610e43565b92505081905550610619848484610624565b600190509392505050565b80600460008573ffffffffffffffffffffffffffffffffffffffff1673ffffffffffffffffffffffffffffffffffffffff1681526020019081526020016000205410156106a6576040517f08c379a000000000000000000000000000000000000000000000000000000000815260040161069d90610d88565b60405180910390fd5b600073ffffffffffffffffffffffffffffffffffffffff168273ffffffffffffffffffffffffffffffffffffffff1603610715576040517f08c379a000000000000000000000000000000000000000000000000000000000815260040161070c90610ec3565b60405180910390fd5b80600460008573ffffffffffffffffffffffffffffffffffffffff1673ffffffffffffffffffffffffffffffffffffffff16815260200190815260200160002060008282546107649190610e43565b9250508190555080600460008473ffffffffffffffffffffffffffffffffffffffff1673ffffffffffffffffffffffffffffffffffffffff16815260200190815260200160002060008282546107ba9190610ee3565b925050819055508173ffffffffffffffffffffffffffffffffffffffff168373ffffffffffffffffffffffffffffffffffffffff167fddf252ad1be2c89b69c2b068fc378daa952ba7f163c4a11628f55a4df523b3ef8360405161081e9190610b5e565b60405180910390a3505050565b600260009054906101000a900460ff1681565b60046020528060005260406000206000915090505481565b6001805461086390610c9f565b80601f016020809104026020016040519081016040528092919081815260200182805461088f90610c9f565b80156108dc5780601f106108b1576101008083540402835291602001916108dc565b820191906000526020600020905b8154815290600101906020018083116108bf57829003601f168201915b505050505081565b60008073ffffffffffffffffffffffffffffffffffffffff168373ffffffffffffffffffffffffffffffffffffffff1603610954576040517f08c379a000000000000000000000000000000000000000000000000000000000815260040161094b90610ec3565b60405180910390fd5b61095f338484610624565b6001905092915050565b6005602052816000526040600020602052806000526040600020600091509150505481565b600081519050919050565b600082825260208201905092915050565b60005b838110156109c85780820151818401526020810190506109ad565b60008484015250505050565b6000601f19601f8301169050919050565b60006109f08261098e565b6109fa8185610999565b9350610a0a8185602086016109aa565b610a13816109d4565b840191505092915050565b60006020820190508181036000830152610a3881846109e5565b905092915050565b600080fd5b600073ffffffffffffffffffffffffffffffffffffffff82169050919050565b6000610a7082610a45565b9050919050565b610a8081610a65565b8114610a8b57600080fd5b50565b600081359050610a9d81610a77565b92915050565b6000819050919050565b610ab681610aa3565b8114610ac157600080fd5b50565b600081359050610ad381610aad565b92915050565b60008060408385031215610af057610aef610a40565b5b6000610afe85828601610a8e565b9250506020610b0f85828601610ac4565b9150509250929050565b60008115159050919050565b610b2e81610b19565b82525050565b6000602082019050610b496000830184610b25565b92915050565b610b5881610aa3565b82525050565b6000602082019050610b736000830184610b4f565b92915050565b600080600060608486031215610b9257610b91610a40565b5b6000610ba086828701610a8e565b9350506020610bb186828701610a8e565b9250506040610bc286828701610ac4565b9150509250925092565b600060ff82169050919050565b610be281610bcc565b82525050565b6000602082019050610bfd6000830184610bd9565b92915050565b600060208284031215610c1957610c18610a40565b5b6000610c2784828501610a8e565b91505092915050565b60008060408385031215610c4757610c46610a40565b5b6000610c5585828601610a8e565b9250506020610c6685828601610a8e565b9150509250929050565b7f4e487b7100000000000000000000000000000000000000000000000000000000600052602260045260246000fd5b60006002820490506001821680610cb757607f821691505b602082108103610cca57610cc9610c70565b5b50919050565b7f43616e6e6f7420617070726f766520746f207a65726f20616464726573730000600082015250565b6000610d06601e83610999565b9150610d1182610cd0565b602082019050919050565b60006020820190508181036000830152610d3581610cf9565b9050919050565b7f496e73756666696369656e742062616c616e6365000000000000000000000000600082015250565b6000610d72601483610999565b9150610d7d82610d3c565b602082019050919050565b60006020820190508181036000830152610da181610d65565b9050919050565b7f496e73756666696369656e7420616c6c6f77616e636500000000000000000000600082015250565b6000610dde601683610999565b9150610de982610da8565b602082019050919050565b60006020820190508181036000830152610e0d81610dd1565b9050919050565b7f4e487b7100000000000000000000000000000000000000000000000000000000600052601160045260246000fd5b6000610e4e82610aa3565b9150610e5983610aa3565b9250828203905081811115610e7157610e70610e14565b5b92915050565b7f43616e6e6f74207472616e7366657220746f207a65726f206164647265737300600082015250565b6000610ead601f83610999565b9150610eb882610e77565b602082019050919050565b60006020820190508181036000830152610edc81610ea0565b9050919050565b6000610eee82610aa3565b9150610ef983610aa3565b9250828201905080821115610f1157610f10610e14565b5b9291505056fea26469706673582212200dbfd3e09f92851c36d75a0beb6b5306d7760d425497b6993ec91807659c469d64736f6c63430008150033",
  "immutableReferences": {},
  "source": "// SPDX-License-Identifier: MIT\npragma solidity ^0.8.21;\nimport \"truffle/console.sol\";\ncontract LeepCoin {\n    // \n    string public name = \"LeepCoin\";\n    string public symbol = \"LEEP\";\n    uint8 public decimals = 18;\n    uint256 public totalSupply;\n\n    // \n    mapping(address => uint256) public balanceOf;\n    // \n    mapping(address => mapping(address => uint256)) public allowance;\n\n    // \n    event Transfer(address indexed from, address indexed to, uint256 value);\n    event Approval(address indexed owner, address indexed spender, uint256 value);\n\n    // \n    constructor(uint256 initialSupply) {\n        totalSupply = initialSupply * 10 ** uint256(decimals);    \n        balanceOf[msg.sender] = totalSupply;\n        emit Transfer(address(0), msg.sender, totalSupply);       \n    }\n\n    // \n    function _transfer(address from, address to, uint256 value) public {\n        require(balanceOf[from] >= value, \"Insufficient balance\");\n        require(to != address(0), \"Cannot transfer to zero address\");\n        balanceOf[from] -= value;\n        balanceOf[to] += value;\n        emit Transfer(from, to, value);\n    }\n\n    // \n    function transfer(address to, uint256 value) public returns (bool success) {\n        require(to != address(0), \"Cannot transfer to zero address\");\n        _transfer(msg.sender, to, value);\n        return true;\n    }\n\n    // \n    function approve(address spender, uint256 value) public returns (bool success) {\n        require(spender != address(0), \"Cannot approve to zero address\");\n        allowance[msg.sender][spender] = value;\n        emit Approval(msg.sender, spender, value);\n        return true;\n    }\n\n    // \n    function transferFrom(address from, address to, uint256 value) public returns (bool success) {\n        require(balanceOf[from] >= value, \"Insufficient balance\");\n        require(allowance[from][msg.sender] >= value, \"Insufficient allowance\");\n\n        allowance[from][msg.sender] -= value;\n        _transfer(from, to, value);\n        return true;\n    }\n}\n",
  "sourcePath": "D:\\code-example\\test\\truffle-project\\contracts\\LeepCoin.sol",
  "compiler": {
    "name": "solc",
    "version": "0.8.21+commit.d9974bed.Emscripten.clang"
  },
  "schemaVersion": "3.4.16",
  "updatedAt": "2026-01-01T06:15:11.547Z",
  "devdoc": {
    "kind": "dev",
    "methods": {},
    "version": 1
  },
  "userdoc": {
    "kind": "user",
    "methods": {},
    "version": 1
  }
}