{
  "contractName": "LeepCoin",
  "abi": [
    {
      "inputs": [
        {
          "internalType": "uint256",
          "name": "initialSupply",
          "type": "uint256"
        }
      ],
      "stateMutability": "nonpayable",
      "type": "constructor"
    },
    {
      "anonymous": false,
      "inputs": [
        {
          "indexed": true,
          "internalType": "address",
          "name": "owner",
          "type": "address"
        },
        {
          "indexed": true,
          "internalType": "address",
          "name": "spender",
          "type": "address"
        },
        {
          "indexed": false,
          "internalType": "uint256",
          "name": "value",
          "type": "uint256"
        }
      ],
      "name": "Approval",
      "type": "event"
    },
    {
      "anonymous": false,
      "inputs": [
        {
          "indexed": true,
          "internalType": "address",
          "name": "from",
          "type": "address"
        },
        {
          "indexed": true,
          "internalType": "address",
          "name": "to",
          "type": "address"
        },
        {
          "indexed": false,
          "internalType": "uint256",
          "name": "value",
          "type": "uint256"
        }
      ],
      "name": "Transfer",
      "type": "event"
    },
    {
      "inputs": [
        {
          "internalType": "address",
          "name": "",
          "type": "address"
        },
        {
          "internalType": "address",
          "name": "",
          "type": "address"
        }
      ],
      "name": "allowance",
      "outputs": [
        {
          "internalType": "uint256",
          "name": "",
          "type": "uint256"
        }
      ],
      "stateMutability": "view",
      "type": "function",
      "constant": true
    },
    {
      "inputs": [
        {
          "internalType": "address",
          "name": "",
          "type": "address"
        }
      ],
      "name": "balanceOf",
      "outputs": [
        {
          "internalType": "uint256",
          "name": "",
          "type": "uint256"
        }
      ],
      "stateMutability": "view",
      "type": "function",
      "constant": true
    },
    {
      "inputs": [],
      "name": "decimals",
      "outputs": [
        {
          "internalType": "uint8",
          "name": "",
          "type": "uint8"
        }
      ],
      "stateMutability": "view",
      "type": "function",
      "constant": true
    },
    {
      "inputs": [],
      "name": "name",
      "outputs": [
        {
          "internalType": "string",
          "name": "",
          "type": "string"
        }
      ],
      "stateMutability": "view",
      "type": "function",
      "constant": true
    },
    {
      "inputs": [],
      "name": "owner",
      "outputs": [
        {
          "internalType": "address",
          "name": "",
          "type": "address"
        }
      ],
      "stateMutability": "view",
      "type": "function",
      "constant": true
    },
    {
      "inputs": [],
      "name": "symbol",
      "outputs": [
        {
          "internalType": "string",
          "name": "",
          "type": "string"
        }
      ],
      "stateMutability": "view",
      "type": "function",
      "constant": true
    },
    {
      "inputs": [],
      "name": "totalSupply",
      "outputs": [
        {
          "internalType": "uint256",
          "name": "",
          "type": "uint256"
        }
      ],
      "stateMutability": "view",
      "type": "function",
      "constant": true
    },
    {
      "inputs": [
        {
          "internalType": "address",
          "name": "from",
          "type": "address"
        },
        {
          "internalType": "address",
          "name": "to",
          "type": "address"
        },
        {
          "internalType": "uint256",
          "name": "value",
          "type": "uint256"
        }
      ],
      "name": "_transfer",
      "outputs": [],
      "stateMutability": "nonpayable",
      "type": "function"
    },
    {
      "inputs": [
        {
          "internalType": "address",
          "name": "to",
          "type": "address"
        },
        {
          "internalType": "uint256",
          "name": "value",
          "type": "uint256"
        }
      ],
      "name": "transfer",
      "outputs": [
        {
          "internalType": "bool",
          "name": "success",
          "type": "bool"
        }
      ],
      "stateMutability": "nonpayable",
      "type": "function"
    },
    {
      "inputs": [
        {
          "internalType": "address",
          "name": "spender",
          "type": "address"
        },
        {
          "internalType": "uint256",
          "name": "value",
          "type": "uint256"
        }
      ],
      "name": "approve",
      "outputs": [
        {
          "internalType": "bool",
          "name": "success",
          "type": "bool"
        }
      ],
      "stateMutability": "nonpayable",
      "type": "function"
    },
    {
      "inputs": [
        {
          "internalType": "address",
          "name": "from",
          "type": "address"
        },
        {
          "internalType": "address",
          "name": "to",
          "type": "address"
        },
        {
          "internalType": "uint256",
          "name": "value",
          "type": "uint256"
        }
      ],
      "name": "transferFrom",
      "outputs": [
        {
          "internalType": "bool",
          "name": "success",
          "type": "bool"
        }
      ],
      "stateMutability": "nonpayable",
      "type": "function"
    },
    {
      "inputs": [
        {
          "internalType": "address",
          "name": "to",
          "type": "address"
        },
        {
          "internalType": "uint256",
          "name": "amount",
          "type": "uint256"
        }
      ],
      "name": "mint",
      "outputs": [
        {
          "internalType": "bool",
          "name": "success",
          "type": "bool"
        }
      ],
      "stateMutability": "nonpayable",
      "type": "function"
    }
  ],
  "bytecode": "0x60806040526040518060400160405280600881526020017f4c656570436f696e000000000000000000000000000000000000000000000000815250600090816200004a91906200048d565b506040518060400160405280600481526020017f4c45455000000000000000000000000000000000000000000000000000000000815250600190816200009191906200048d565b506012600260006101000a81548160ff021916908360ff160217905550348015620000bb57600080fd5b5060405162001ce138038062001ce18339818101604052810190620000e19190620005aa565b600260009054906101000a900460ff1660ff16600a6200010291906200075f565b816200010f9190620007b0565b600381905550600354600560003373ffffffffffffffffffffffffffffffffffffffff1673ffffffffffffffffffffffffffffffffffffffff1681526020019081526020016000208190555033600460006101000a81548173ffffffffffffffffffffffffffffffffffffffff021916908373ffffffffffffffffffffffffffffffffffffffff1602179055503373ffffffffffffffffffffffffffffffffffffffff16600073ffffffffffffffffffffffffffffffffffffffff167fddf252ad1be2c89b69c2b068fc378daa952ba7f163c4a11628f55a4df523b3ef600354604051620001fe91906200080c565b60405180910390a35062000829565b600081519050919050565b7f4e487b7100000000000000000000000000000000000000000000000000000000600052604160045260246000fd5b7f4e487b7100000000000000000000000000000000000000000000000000000000600052602260045260246000fd5b600060028204905060018216806200028f57607f821691505b602082108103620002a557620002a462000247565b5b50919050565b60008190508160005260206000209050919050565b60006020601f8301049050919050565b60008160020a8302905092915050565b600060088302620003127fffffffffffffffffffffffffffffffffffffffffffffffffffffffffffffffff82620002d0565b6200031e8683620002d0565b95508019841693508086168417925050509392505050565b6000819050919050565b6000819050919050565b60006200036b620003656200035f8462000336565b62000340565b62000336565b9050919050565b6000819050919050565b62000387836200034a565b6200039f620003968262000372565b848454620002e0565b825550505050565b600090565b620003b6620003a7565b620003c38184846200037c565b505050565b5b81811015620003eb57620003df600082620003ac565b600181019050620003c9565b5050565b601f8211156200043a576200040481620002ab565b6200040f84620002c0565b810160208510156200041f578190505b620004376200042e85620002c0565b830182620003c8565b50505b505050565b60008160020a8304905092915050565b600062000462600019846008026200043f565b1980831691505092915050565b60006200047d83836200044f565b9150826002028217905092915050565b62000498826200020d565b67ffffffffffffffff811115620004b457620004b362000218565b5b620004c0825462000276565b620004cd828285620003ef565b600060209050601f831160018114620005055760008415620004f0578287015190505b620004fc85826200046f565b8655506200056c565b601f1984166200051586620002ab565b60005b828110156200053f5784890151825560018201915060208501945060208101905062000518565b868310156200055f57848901516200055b601f8916826200044f565b8355505b6001600288020188555050505b505050505050565b600080fd5b620005848162000336565b81146200059057600080fd5b50565b600081519050620005a48162000579565b92915050565b600060208284031215620005c357620005c262000574565b5b6000620005d38482850162000593565b91505092915050565b7f4e487b7100000000000000000000000000000000000000000000000000000000600052601160045260246000fd5b6000600282049050919050565b6000808291508390505b60018511156200066a57808604811115620006425762000641620005dc565b5b6001851615620006525780820291505b808102905062000662856200060b565b945062000622565b94509492505050565b60008262000685576001905062000758565b8162000695576000905062000758565b8160018114620006ae5760028114620006b957620006ef565b600191505062000758565b60ff841115620006ce57620006cd620005dc565b5b8360020a915084821115620006e857620006e7620005dc565b5b5062000758565b5060208310610133831016604e8410600b8410161715620007295782820a905083811115620007235762000722620005dc565b5b62000758565b62000738848484600162000618565b92509050818404811115620007525762000751620005dc565b5b81810290505b9392505050565b60006200076c8262000336565b9150620007798362000336565b9250620007a87fffffffffffffffffffffffffffffffffffffffffffffffffffffffffffffffff848462000673565b905092915050565b6000620007bd8262000336565b9150620007ca8362000336565b9250828202620007da8162000336565b91508282048414831517620007f457620007f3620005dc565b5b5092915050565b620008068162000336565b82525050565b6000602082019050620008236000830184620007fb565b92915050565b6114a880620008396000396000f3fe608060405234801561001057600080fd5b50600436106100d1576000357c01000000000000000000000000000000000000000000000000000000009004806340c10f191161008e57806340c10f19146101ac57806370a08231146101dc5780638da5cb5b1461020c57806395d89b411461022a578063a9059cbb14610248578063dd62ed3e14610278576100d1565b806306fdde03146100d6578063095ea7b3146100f457806318160ddd1461012457806323b872dd1461014257806330e0789e14610172578063313ce5671461018e575b600080fd5b6100de6102a8565b6040516100eb9190610cb7565b60405180910390f35b61010e60048036038101906101099190610d72565b610336565b60405161011b9190610dcd565b60405180910390f35b61012c610496565b6040516101399190610df7565b60405180910390f35b61015c60048036038101906101579190610e12565b61049c565b6040516101699190610dcd565b60405180910390f35b61018c60048036038101906101879190610e12565b610688565b005b61019661088f565b6040516101a39190610e81565b60405180910390f35b6101c660048036038101906101c19190610d72565b6108a2565b6040516101d39190610dcd565b60405180910390f35b6101f660048036038101906101f19190610e9c565b610ab1565b6040516102039190610df7565b60405180910390f35b610214610ac9565b6040516102219190610ed8565b60405180910390f35b610232610aef565b60405161023f9190610cb7565b60405180910390f35b610262600480360381019061025d9190610d72565b610b7d565b60405161026f9190610dcd565b60405180910390f35b610292600480360381019061028d9190610ef3565b610c02565b60405161029f9190610df7565b60405180910390f35b600080546102b590610f62565b80601f01602080910402602001604051908101604052809291908181526020018280546102e190610f62565b801561032e5780601f106103035761010080835404028352916020019161032e565b820191906000526020600020905b81548152906001019060200180831161031157829003601f168201915b505050505081565b60008073ffffffffffffffffffffffffffffffffffffffff168373ffffffffffffffffffffffffffffffffffffffff16036103a6576040517f08c379a000000000000000000000000000000000000000000000000000000000815260040161039d90610fdf565b60405180910390fd5b81600660003373ffffffffffffffffffffffffffffffffffffffff1673ffffffffffffffffffffffffffffffffffffffff16815260200190815260200160002060008573ffffffffffffffffffffffffffffffffffffffff1673ffffffffffffffffffffffffffffffffffffffff168152602001908152602001600020819055508273ffffffffffffffffffffffffffffffffffffffff163373ffffffffffffffffffffffffffffffffffffffff167f8c5be1e5ebec7d5bd14f71427d1e84f3dd0314c0f7b2291e5b200ac8c7c3b925846040516104849190610df7565b60405180910390a36001905092915050565b60035481565b600081600560008673ffffffffffffffffffffffffffffffffffffffff1673ffffffffffffffffffffffffffffffffffffffff168152602001908152602001600020541015610520576040517f08c379a00000000000000000000000000000000000000000000000000000000081526004016105179061104b565b60405180910390fd5b81600660008673ffffffffffffffffffffffffffffffffffffffff1673ffffffffffffffffffffffffffffffffffffffff16815260200190815260200160002060003373ffffffffffffffffffffffffffffffffffffffff1673ffffffffffffffffffffffffffffffffffffffff1681526020019081526020016000205410156105df576040517f08c379a00000000000000000000000000000000000000000000000000000000081526004016105d6906110b7565b60405180910390fd5b81600660008673ffffffffffffffffffffffffffffffffffffffff1673ffffffffffffffffffffffffffffffffffffffff16815260200190815260200160002060003373ffffffffffffffffffffffffffffffffffffffff1673ffffffffffffffffffffffffffffffffffffffff168152602001908152602001600020600082825461066b9190611106565b9250508190555061067d848484610688565b600190509392505050565b80600560008573ffffffffffffffffffffffffffffffffffffffff1673ffffffffffffffffffffffffffffffffffffffff16815260200190815260200160002054101561070a576040517f08c379a00000000000000000000000000000000000000000000000000000000081526004016107019061104b565b60405180910390fd5b600073ffffffffffffffffffffffffffffffffffffffff168273ffffffffffffffffffffffffffffffffffffffff1603610779576040517f08c379a000000000000000000000000000000000000000000000000000000000815260040161077090611186565b60405180910390fd5b80600560008573ffffffffffffffffffffffffffffffffffffffff1673ffffffffffffffffffffffffffffffffffffffff16815260200190815260200160002060008282546107c89190611106565b9250508190555080600560008473ffffffffffffffffffffffffffffffffffffffff1673ffffffffffffffffffffffffffffffffffffffff168152602001908152602001600020600082825461081e91906111a6565b925050819055508173ffffffffffffffffffffffffffffffffffffffff168373ffffffffffffffffffffffffffffffffffffffff167fddf252ad1be2c89b69c2b068fc378daa952ba7f163c4a11628f55a4df523b3ef836040516108829190610df7565b60405180910390a3505050565b600260009054906101000a900460ff1681565b6000600460009054906101000a900473ffffffffffffffffffffffffffffffffffffffff1673ffffffffffffffffffffffffffffffffffffffff163373ffffffffffffffffffffffffffffffffffffffff1614610934576040517f08c379a000000000000000000000000000000000000000000000000000000000815260040161092b90611226565b60405180910390fd5b600073ffffffffffffffffffffffffffffffffffffffff168373ffffffffffffffffffffffffffffffffffffffff16036109a3576040517f08c379a000000000000000000000000000000000000000000000000000000000815260040161099a90611292565b60405180910390fd5b6000600260009054906101000a900460ff1660ff16600a6109c491906113e5565b836109cf9190611430565b905080600360008282546109e391906111a6565b9250508190555080600560008673ffffffffffffffffffffffffffffffffffffffff1673ffffffffffffffffffffffffffffffffffffffff1681526020019081526020016000206000828254610a3991906111a6565b925050819055508373ffffffffffffffffffffffffffffffffffffffff16600073ffffffffffffffffffffffffffffffffffffffff167fddf252ad1be2c89b69c2b068fc378daa952ba7f163c4a11628f55a4df523b3ef83604051610a9e9190610df7565b60405180910390a3600191505092915050565b60056020528060005260406000206000915090505481565b600460009054906101000a900473ffffffffffffffffffffffffffffffffffffffff1681565b60018054610afc90610f62565b80601f0160208091040260200160405190810160405280929190818152602001828054610b2890610f62565b8015610b755780601f10610b4a57610100808354040283529160200191610b75565b820191906000526020600020905b815481529060010190602001808311610b5857829003601f168201915b505050505081565b60008073ffffffffffffffffffffffffffffffffffffffff168373ffffffffffffffffffffffffffffffffffffffff1603610bed576040517f08c379a0000000000000000000000000000000000000000000000000000000008152600401610be490611186565b60405180910390fd5b610bf8338484610688565b6001905092915050565b6006602052816000526040600020602052806000526040600020600091509150505481565b600081519050919050565b600082825260208201905092915050565b60005b83811015610c61578082015181840152602081019050610c46565b60008484015250505050565b6000601f19601f8301169050919050565b6000610c8982610c27565b610c938185610c32565b9350610ca3818560208601610c43565b610cac81610c6d565b840191505092915050565b60006020820190508181036000830152610cd18184610c7e565b905092915050565b600080fd5b600073ffffffffffffffffffffffffffffffffffffffff82169050919050565b6000610d0982610cde565b9050919050565b610d1981610cfe565b8114610d2457600080fd5b50565b600081359050610d3681610d10565b92915050565b6000819050919050565b610d4f81610d3c565b8114610d5a57600080fd5b50565b600081359050610d6c81610d46565b92915050565b60008060408385031215610d8957610d88610cd9565b5b6000610d9785828601610d27565b9250506020610da885828601610d5d565b9150509250929050565b60008115159050919050565b610dc781610db2565b82525050565b6000602082019050610de26000830184610dbe565b92915050565b610df181610d3c565b82525050565b6000602082019050610e0c6000830184610de8565b92915050565b600080600060608486031215610e2b57610e2a610cd9565b5b6000610e3986828701610d27565b9350506020610e4a86828701610d27565b9250506040610e5b86828701610d5d565b9150509250925092565b600060ff82169050919050565b610e7b81610e65565b82525050565b6000602082019050610e966000830184610e72565b92915050565b600060208284031215610eb257610eb1610cd9565b5b6000610ec084828501610d27565b91505092915050565b610ed281610cfe565b82525050565b6000602082019050610eed6000830184610ec9565b92915050565b60008060408385031215610f0a57610f09610cd9565b5b6000610f1885828601610d27565b9250506020610f2985828601610d27565b9150509250929050565b7f4e487b7100000000000000000000000000000000000000000000000000000000600052602260045260246000fd5b60006002820490506001821680610f7a57607f821691505b602082108103610f8d57610f8c610f33565b5b50919050565b7f43616e6e6f7420617070726f766520746f207a65726f20616464726573730000600082015250565b6000610fc9601e83610c32565b9150610fd482610f93565b602082019050919050565b60006020820190508181036000830152610ff881610fbc565b9050919050565b7f496e73756666696369656e742062616c616e6365000000000000000000000000600082015250565b6000611035601483610c32565b915061104082610fff565b602082019050919050565b6000602082019050818103600083015261106481611028565b9050919050565b7f496e73756666696369656e7420616c6c6f77616e636500000000000000000000600082015250565b60006110a1601683610c32565b91506110ac8261106b565b602082019050919050565b600060208201905081810360008301526110d081611094565b9050919050565b7f4e487b7100000000000000000000000000000000000000000000000000000000600052601160045260246000fd5b600061111182610d3c565b915061111c83610d3c565b9250828203905081811115611134576111336110d7565b5b92915050565b7f43616e6e6f74207472616e7366657220746f207a65726f206164647265737300600082015250565b6000611170601f83610c32565b915061117b8261113a565b602082019050919050565b6000602082019050818103600083015261119f81611163565b9050919050565b60006111b182610d3c565b91506111bc83610d3c565b92508282019050808211156111d4576111d36110d7565b5b92915050565b7f43616c6c6572206973206e6f7420746865206f776e6572000000000000000000600082015250565b6000611210601783610c32565b915061121b826111da565b602082019050919050565b6000602082019050818103600083015261123f81611203565b9050919050565b7f43616e6e6f74206d696e7420746f207a65726f20616464726573730000000000600082015250565b600061127c601b83610c32565b915061128782611246565b602082019050919050565b600060208201905081810360008301526112ab8161126f565b9050919050565b6000600282049050919050565b6000808291508390505b6001851115611309578086048111156112e5576112e46110d7565b5b60018516156112f45780820291505b8081029050611302856112b2565b94506112c9565b94509492505050565b60008261132257600190506113de565b8161133057600090506113de565b816001811461134657600281146113505761137f565b60019150506113de565b60ff841115611362576113616110d7565b5b8360020a915084821115611379576113786110d7565b5b506113de565b5060208310610133831016604e8410600b84101617156113b45782820a9050838111156113af576113ae6110d7565b5b6113de565b6113c184848460016112bf565b925090508184048111156113d8576113d76110d7565b5b81810290505b9392505050565b60006113f082610d3c565b91506113fb83610d3c565b92506114287fffffffffffffffffffffffffffffffffffffffffffffffffffffffffffffffff8484611312565b905092915050565b600061143b82610d3c565b915061144683610d3c565b925082820261145481610d3c565b9150828204841483151761146b5761146a6110d7565b5b509291505056fea26469706673582212206f8b86f878a898ed9b4bb1e9fc0ff32028a90b230c7c0a4f44d6bb0ca4fd837d64736f6c63430008150033",
  "immutableReferences": {},
  "source": "// SPDX-License-Identifier: MIT\npragma solidity ^0.8.21;\ncontract LeepCoin {\n    // \n    string public name = \"LeepCoin\";\n    string public symbol = \"LEEP\";\n    uint8 public decimals = 18;\n    uint256 public totalSupply;\n    address public owner;\n\n    // \n    mapping(address => uint256) public balanceOf;\n    // \n    mapping(address => mapping(address => uint256)) public allowance;\n\n    // \n    event Transfer(address indexed from, address indexed to, uint256 value);\n    event Approval(address indexed owner, address indexed spender, uint256 value);\n\n    // \n    modifier onlyOwner() {\n        require(msg.sender == owner, \"Caller is not the owner\");\n        _;\n    }\n\n    // \n    constructor(uint256 initialSupply) {\n        totalSupply = initialSupply * 10 ** uint256(decimals);    \n        balanceOf[msg.sender] = totalSupply;\n        owner = msg.sender;\n        emit Transfer(address(0), msg.sender, totalSupply);       \n    }\n\n    // \n    function _transfer(address from, address to, uint256 value) public {\n        require(balanceOf[from] >= value, \"Insufficient balance\");\n        require(to != address(0), \"Cannot transfer to zero address\");\n        balanceOf[from] -= value;\n        balanceOf[to] += value;\n        emit Transfer(from, to, value);\n    }\n\n    // \n    function transfer(address to, uint256 value) public returns (bool success) {\n        require(to != address(0), \"Cannot transfer to zero address\");\n        _transfer(msg.sender, to, value);\n        return true;\n    }\n\n    // \n    function approve(address spender, uint256 value) public returns (bool success) {\n        require(spender != address(0), \"Cannot approve to zero address\");\n        allowance[msg.sender][spender] = value;\n        emit Approval(msg.sender, spender, value);\n        return true;\n    }\n\n    // \n    function transferFrom(address from, address to, uint256 value) public returns (bool success) {\n        require(balanceOf[from] >= value, \"Insufficient balance\");\n        require(allowance[from][msg.sender] >= value, \"Insufficient allowance\");\n\n        allowance[from][msg.sender] -= value;\n        _transfer(from, to, value);\n        return true;\n    }\n\n    // \n    function mint(address to, uint256 amount) public onlyOwner returns (bool success) {\n        require(to != address(0), \"Cannot mint to zero address\");\n        uint256 mintAmount = amount * 10 ** uint256(decimals);\n        totalSupply += mintAmount;\n        balanceOf[to] += mintAmount;\n        emit Transfer(address(0), to, mintAmount);\n        return true;\n    }\n}\n",
  "sourcePath": "D:\\code-example\\test\\truffle-project\\contracts\\LeepCoin.sol",
  "compiler": {
    "name": "solc",
    "version": "0.8.21+commit.d9974bed.Emscripten.clang"
  },
  "schemaVersion": "3.4.16",
  "updatedAt": "2026-01-11T01:08:53.234Z",
  "networkType": "ethereum",
  "devdoc": {
    "kind": "dev",
    "methods": {},
    "version": 1
  },
  "userdoc": {
    "kind": "user",
    "methods": {},
    "version": 1
  }
}